:100000000C9484020C94A1020C94A1020C94A10201
:100010000C94A1020C94A1020C94A1020C94A102D4
:100020000C94A1020C94A1020C948F290C94622AC6
:100030000C941E240C94A1020C94A1020C94A10215
:100040000C94A1020C94A1020C94A1020C94A102A4
:100050000C94A1020C94B6240C94A1020C94A1025D
:100060000C94A1020C94A1020C94A1020C94A10284
:100070000C94A1020C94A1020C94A1020C94A10274
:100080000C94A1020C94A1020C94A1020C94A10264
:100090000C94A1020C94A1020C94A1020C94A10254
:1000A0000C94A1020C94A1020C94A102040006007D
:1000B0000500070004000600050007000400060014
:1000C0000500070004000600050007001E0F0500DC
:1000D000047F3F1F643214643214783C1E1E140ADD
:1000E000052223252628292A2C2D2F303233353678
:1000F000383A3B3D3E4042434547494A4C4E5051B9
:10010000535557595A5C5E6062646668696B6D6FDF
:1001100071737577797B7D7F81838587898A8C8EE2
:1001200090929496989A9C9E9FA1A3A5A7A8AAACEA
:10013000AEAFB1B3B4B6B8B9BBBCBEBFC1C2C3C524
:10014000C6C7C9CACBCCCDCED0D1D2D2D3D4D5D6C6
:10015000D7D7D8D9D9DADADBDBDBDCDCDCDCDCDDF9
:10016000DDDDDDDCDCDCDCDCDBDBDBDADAD9D9D8DD
:10017000D7D7D6D5D4D3D2D2D1D0CECDCCCBCAC975
:10018000C7C6C5C3C2C1BFBEBCBBB9B8B6B4B3B1A4
:10019000AFAEACAAA8A7A5A3A19F9E9C9A9896943F
:1001A00092908E8C8A89878583817F7D7B79777514
:1001B00073716F6D6B6968666462605E5C5A5957F3
:1001C000555351504E4C4A4947454342403E3D3BB2
:1001D0003A3836353332302F2D2C2A29282625233C
:1001E00022FFAA7F55400001010101010101010127
:1001F00002020202020202020203030303030303D8
:1002000003040404040404040505050505060606A4
:100210000606070707070708080808090909090A61
:100220000A0A0B0B0B0C0C0C0D0D0D0E0E0E0F0F06
:100230000F10101111111212131314141515161694
:100240001717181819191A1A1B1B1C1D1D1E1E1F03
:100250002020212222232424252626272829292A52
:100260002B2C2D2D2E2F303132323334353637387A
:10027000393A3B3C3D3E3F40414243444546474876
:10028000494A4C4D4E4F50515354555658595A5B4C
:100290005D5E5F616264656668696B6C6D6F7072EC
:1002A000737577787A7B7D7E8082838587888A8C58
:1002B0008E8F91939596989A9C9EA0A2A3A5A7A98C
:1002C000ABADAFB1B3B5B7BABCBEC0C2C4C6C9CB83
:1002D000CDCFD1D4D6D8DBDDDFE2E4E7E9EBEEF039
:1002E000F3F5F8FAFDFF00000000000000002A2BE3
:1002F00028000000000000000000000000000000D6
:100300000029000000002C1E34202122243426273E
:10031000252E362D3738271E1F202122232425265F
:100320003333362E37381F0405060708090A0B0C2D
:100330000D0E0F101112131415161718191A1B1C75
:100340001D2F3130232D350405060708090A0B0C33
:100350000D0E0F101112131415161718191A1B1C55
:100360001D2F3130354C000000000000000000005F
:10037000000000000000000000000000000000007D
:10038000000000000000000000007E0F00D4FFFF0E
:10039000FFC7000000780A0374006B00730034008C
:1003A000000012036B0075007300680069006D00A7
:1003B0006100380000000403090409025B00030126
:1003C00000A0FA0904000001030101000921110144
:1003D000000122440007058103080001090401000F
:1003E000020300000009211101000122220007057B
:1003F0008203200001070503032000010904020015
:100400000103000000092111010001227B00070502
:100410008403200001120100020000000838393472
:10042000300100010200010660FF0961A1010962BB
:10043000150026FF00952075088102096315002626
:10044000FF00952075089102C005010902A10185F0
:10045000020901A1000509190129081500250195C6
:1004600008750181020501093009311581257F9543
:10047000027508810609381581257F950175088167
:1004800006050C0A38021581257F9501750881063D
:10049000C0C005010980A101850319012AB7001513
:1004A0000126B700950175108100C0050C0901A156
:1004B00001850419012AA002150126A002950175E3
:1004C000108100C005010906A101050719E029E70F
:1004D00015002501950875018102950175088101B6
:1004E0000507190029FF150026FF009506750881EC
:1004F00000050819012905150025019505750191CB
:1005000002950175039101C011241FBECFEFDAE0FF
:10051000DEBFCDBF11E0A0E0B1E0E0E0FDE502C04C
:1005200005900D92A83DB107D9F722E0A8EDB1E002
:1005300001C01D92A63BB207E1F70E9467110C941F
:10054000042E0C940000982F942B943078F46111B1
:100550000DC094E0899FF0011124E40FF11DEE0F0E
:10056000FF1FE455FF4F85919491089581E090E03D
:10057000089581E008950E94B902089581E00895E8
:100580000E94B90208950E94C002089508950E9431
:10059000C6020895A6E0B0E0E0EDF2E00C94B02CC5
:1005A00049835A839E833091DF0189819A81311179
:1005B0001AC03E81332399F0222389F00E94530808
:1005C000182F682F89819A810E94370869817A8162
:1005D000812F0E94300F2696E3E00C94CC2C0E94D1
:1005E0004408182FF3CF0E94530869817A81F1CF14
:1005F000FC01262F40815181628173818481958124
:100600000E94CA020895CF93DF93D82FC92F61E0CB
:100610000E94F8026D2F7C2F0E94BB02DF91CF91C8
:100620000895CF93DF93D82FC92F60E00E94F8027E
:100630006D2F7C2F0E94C702DF91CF9108950895FE
:100640000E942B070E941F032FEF84E39CE02150A0
:1006500080409040E1F700C0000008950E94200310
:100660000E94DA2408950E9420030E94EB2408953A
:100670000F931F93CF93DF938C0161E00E94F802E8
:10068000EC01B8010E94ED1C882309F449C0B801AF
:10069000CE010E94C302882309F442C0B801CE01F2
:1006A0000E9468228823E1F1B801CE010E949F1EBA
:1006B0008823B1F1B801CE010E94CE21882381F1B7
:1006C000B801CE010E94D51B882351F1B801CE019B
:1006D0000E94A922882321F1F8018581882381F0D5
:1006E000CA35FCE7DF0739F178F4C130ECE7DE0703
:1006F000F9F0C330FCE7DF07C9F0C115DC4771F042
:10070000C8010E94BE020DC0CB35ECE7DE07B1F098
:10071000CC35DC47A9F70E94920CF2CF0E942E0341
:1007200080E0DF91CF911F910F9108950E94A40C5A
:100730000E943303F5CF0E949C0CE2CF0E94A00CD4
:10074000DFCF0E9400240E94C80308950E94CC03BA
:100750000E9405240895089581E008950895CF9397
:10076000DF93D82F0E94AC03C82F882319F08D2F58
:100770000E94AE038C2FDF91CF9108950895CF93FF
:10078000C82F0E94AB038C2F0E94AF03CF91089516
:1007900080E00E94BF0308950E94E9220E94BF03E7
:1007A0000895CF930E94E922C82F8091DA018C1717
:1007B00079F0C093DA010E948A246093DB01709380
:1007C000DC018093DD019093DE018C2F0E94BF033A
:1007D000CF910895ADE0B0E0E0EFF3E00C94B12CE0
:1007E000488759876A877B878C879D8791110E94EC
:1007F000C70B1F8286E0FE013896DE01119601903C
:100800000D928A95E1F78D8181110DC029813A8180
:100810004B815C816D817E818F810E94F60A2D96CD
:10082000E2E00C94CD2CCE0101960E9403038111CD
:10083000EDCFF5CFFC018481813021F4808191815D
:100840000E947C080895662329F00E940B120E94E2
:10085000CC1208950E945412FACFCF93C82F882348
:10086000B9F08CEF8C0F813AA8F46C2F80910401C1
:10087000909105010E946D23882329F08C2F0E94FE
:10088000840B0E94020C8C2F0E947C0B0E94020C95
:10089000CF91089580E28C0F883048F4C77081E0D2
:1008A00001C0880FCA95EAF70E94A80BEFCF8BE52D
:1008B0008C0F833038F42C2F2452330BC9010E9443
:1008C0001023E6CFE8E5EC0FEB3150F4F0E0EE0F4B
:1008D000FF1FE35DFE4F808191810E943623D8CFB8
:1008E00083E38C0F8331A0F661E08C2F0E942304F8
:1008F000CFCF882381F19CEF980F913A28F40E9482
:10090000840B0E94020C089590E2980F983050F4E6
:10091000877091E001C0990F8A95EAF7892F0E94AC
:10092000AE0BEFCF9BE5980F933028F480E090E07A
:100930000E941023089598E5980F9B3128F480E0D9
:1009400090E00E943623089593E3980F933118F4B2
:1009500060E00E94230408951F93CF93DF93182F24
:10096000EB010E942D04209739F4812F0E94790415
:10097000DF91CF911F9108958FE99FE00197F1F7E3
:1009800000C000002197EFCF65E070E0893311F4DB
:1009900060E570E00E94AC040895882321F00E9475
:1009A000A80B0E94020C0895882321F00E94AE0B30
:1009B0000E94020C0895A0E0B0E0E1EEF4E00C9497
:1009C000AB2C6C01D62FC72FFC0115810681029537
:1009D0000F700E949D0BE82E8823E9F0E12E112371
:1009E000D1F08C2F807F803451F080E28D0F8830E1
:1009F000E0F0011104C08C2F807E8032B1F0809134
:100A00008E0282FF12C082E00E94650C0E949D0B44
:100A100091E0E82EE926EC2FE295EF70C03CB0F5AE
:100A2000F0E0EA5FF14D0C94632CE12CF4CF0C2F35
:100A30000F70C03110F00295007F112399F0002350
:100A400059F080E28D0F883010F0D11107C0802F4F
:100A50000E94A80B0E94020C8D2F51C0802F0E9473
:100A6000B90BF8CF8D2F0E947904002379F080E232
:100A70008D0F883010F0D11104C0802F0E94AE0B72
:100A800003C0802F0E94BF0B0E94020CEE2089F051
:100A90000E94990B80FD0DC0F60115820E94930BF8
:100AA0000E94A507C6010E94F2060E94930B0E94B5
:100AB000B107CDB7DEB7E8E00C94C72CFC2FFF7070
:100AC000FF2EC07FC03219F0F29480EFF822DD23B0
:100AD00041F0D130D1F1112309F444C00023F1F0E9
:100AE000BBCF80918E0282FD15C0112359F0FF20EB
:100AF00029F08F2D0E94A80B0E94020C80E00E941A
:100B00002D04C4CF80E00E947904FF2009F4BECFF9
:100B10008F2DB4CF112369F0011104C08F2D0E94D5
:100B2000CD04B4CF013009F0B1CF8F2D0E94DF0B7F
:100B3000ADCF0111ABCF8F2D0E94D4048F2D0E9419
:100B4000EB0B8F2D0E94CE0BA1CF112321F006308D
:100B500008F09CCFE3CF053008F098CF8F2D0E948E
:100B6000D40494CF0023D1F3D93369F42FEF87EE67
:100B700093E0215080409040E1F700C000008D2FAD
:100B80000E94790483CFEFE1FEE43197F1F7F5CFCE
:100B90008C2F869586958370882369F0813009F0C3
:100BA00075CF8D2F9C2F9370111102C080E090E0C3
:100BB0000E9436236BCF8D2F9C2F9370111102C092
:100BC00080E090E00E94102361CF612F8D2F0E9462
:100BD00023045CCF8C2F8370811134C0111124C089
:100BE0004D2F429546954770440F440F8D2F8F70BF
:100BF000042E01C0880F0A94EAF7D071DD2341F07A
:100C00002FE030E001C0220F4A95EAF7D22FD095AD
:100C1000C695C695C3708D2BC23071F0C33079F084
:100C2000C13039F00E9481070E94E9220E94BF036F
:100C30002DCF0E947B07F8CF0E948707F5CF0E9437
:100C40007807F2CF112339F1C0FFEECF4D2F429537
:100C500046954770440F440F8D2F8F70042E01C0AE
:100C6000880F0A94EAF7D071DD2341F02FE030E0DD
:100C700001C0220F4A95EAF7D22FD095C695C695A6
:100C8000C3708D2BC23069F0C33071F0C13031F0C8
:100C90000E94D307C9CF823038F2D8CF0E94CD0747
:100CA000C3CF0E94D907C0CF0E949307BDCFCF709A
:100CB000112339F08C2F0E94A5078D2F0E94CD049F
:100CC000B3CF8D2F0E94D4048C2F0E94B107ACCFDC
:100CD000D23F31F170F4D03FB9F0D13FB1F11123DF
:100CE00009F451C0002309F44BC08D2F0E942D043C
:100CF0009BCFD33FE1F0D43F21F11111F3CF01118C
:100D000054C08C2F8F71E1CF112341F0053008F0D2
:100D10008BCF8C2F8F710E94C10786CF0530F7CF04
:100D20008C2F8F711111D1CF0E94A5077DCF112378
:100D300029F08C2F8F710E949C0776CF0E94980714
:100D400073CF80918E0282FD06C08C2F8F7111238C
:100D500009F4BBCFE9CF112349F0CF718C2F0E944A
:100D6000A50763E08C2F0E94470C5ECF81E00E94B4
:100D7000650C023008F458CF82E00E94650C54CF15
:100D80008C2F8F71D1CF002309F4BBCFD93369F4F5
:100D9000FFEF27EE83E0F15020408040E1F700C0F4
:100DA00000008D2F0E9479043FCFEFE1FEE43197E0
:100DB000F1F7F5CF0F931F93CF93DF93EC01688189
:100DC00079818D810E9489088C010E94DF070E9431
:100DD0007707B801CE010E94DB04DF91CF911F910C
:100DE0000F910895CF93DF93EC018C81882399F0C4
:100DF000CE010E943803811111C00E949D0B8823EF
:100E000051F08D81882339F080918E0282FF03C0DA
:100E100082E00E94650CDF91CF910895CE010E947F
:100E2000DA06CE010E941103F6CF80E090E00E9426
:100E3000102380E090E00E9436230E94C70B0E949E
:100E4000020C0E94E9120E94CC1208950E948C0BA1
:100E50000E94150708950E94B60B0E942607089568
:100E6000282F92959F70963091F060F4925F9F705A
:100E7000923030F481E0203F79F030F4283E30F0B9
:100E800080E008959A5FF3CF243FD1F7089581E081
:100E9000283EE0F3213FF9CF0895FC0184818823A7
:100EA00039F0808191810E947C080E94300708956A
:100EB00080E00895A6E0B0E0E0E6F7E00C94B12C05
:100EC0002696E2E00C94CD2CA7E0B0E0EAE6F7E04D
:100ED0000C94B12C2796E2E00C94CD2C08950E943E
:100EE0006E0708950E946F078093E40108950895A6
:100EF0000E94720708959091E401892B0E94720765
:100F000008959091E40189230E94720708959091B9
:100F1000E40189270E94720708950E946E070895D0
:100F20000E948D0708950E9490078093E301089521
:100F300080E00E949307089591E001C0990F8A957F
:100F4000EAF7892F0E949307089521E030E001C05D
:100F5000220F8A95EAF78091E301822B0E94930782
:100F6000089521E030E0A90102C0440F551F8A9581
:100F7000E2F7CA0180959091E30189230E949307CB
:100F8000089521E030E001C0220F8A95EAF78091B0
:100F9000E30182270E94930708959091E301892B32
:100FA0000E94930708959091E30189230E9493077B
:100FB00008959091E30189270E9493070895089569
:100FC0009B01677091E001C0990F6A95EAF763E0B1
:100FD000369527956A95E1F7B901660F771F260FB9
:100FE000371FFA01E20FF31F40E050E0682F70E076
:100FF0008191DF0111979B01042E02C03695279540
:101000000A94E2F7217021952827292328272C9379
:101010004F5F5F4F4330510559F708959C01A82F4A
:10102000A77083E0369527958A95E1F7C901880F67
:10103000991F820F931FFB01E80FF91F40E050E05A
:1010400080E0219130E00A2E02C0369527950A945F
:10105000E2F721703327042E01C0220F0A94EAF729
:10106000822B4F5F5F4F4330510559F70895282F6A
:10107000862F911108C0243030F4622F70E040EECA
:1010800051E00E94E0070895282F892F911109C08F
:10109000243040F460EE71E0822F90E00E940E0850
:1010A000089580E00895A0E0B0E0E9E5F8E00C9450
:1010B000AC2C7C010091E3018091E401082BC3E09A
:1010C000D0E010E0C8010C2E02C0959587950A94D7
:1010D000E2F780FD09C02197A8F7D12C8D2DCDB75F
:1010E000DEB7E7E00C94C82CDC2EB7018C2F0E94F1
:1010F0003C0F019781F3F2CFCF93DF93D82FC92F05
:101100000E9453086D2F7C2F0E943C0FDF91CF91DE
:1011100008951F93CF93DF93162FD72F9091DF0160
:10112000992341F0862F972F0E947C08DF91CF9161
:101130001F910895882381F0862F972F0E945308CE
:10114000C82F682F812F9D2F0E943708612F7D2F78
:101150008C2F0E943C0FEACF862F972F0E944408C5
:10116000C82FF4CFE1E0F0E0DF0102C0AA0FBB1FFF
:101170006A95E2F7BD01DF0102C0AA0FBB1F4A95C5
:10118000E2F76A2B01C0EE0F2A95EAF7962F982313
:10119000961302C08E2B0895E0958E230895242F78
:1011A000462F682F8091E3010E94B2080E949307A6
:1011B00008950F931F93CF93E091E501C7E08091CD
:1011C000E6018E1304C0CF911F910F9108950E2F49
:1011D00010E0CE9FF0011124E951FE4F20813181B2
:1011E000428153816481758186810E946407F80180
:1011F0003196E770E4CF20911F0230912002409198
:101200002102509122026091230270912402809168
:1012100025020E946407089580912502803178F4A8
:1012200080912402882359F0E091E5012091E601A4
:101230003091200240911F0257E02E1301C0089503
:101240006E2F70E05E9FF0011124DF01A951BE4FA7
:1012500014968C911497882361F111968C911197B3
:10126000831327C08C91841324C015968C911597F5
:1012700081111FC012968D919C91A0912102B09175
:1012800022028A1B9B0B883C910598F480912502D1
:101290008F70806180932502E351FE4F80818F70B3
:1012A000806180838FE192E00E94F2060E94D9085B
:1012B0000895FB013196E770C0CFE091E501909170
:1012C000E60127E0E91302C080E00895AE2FB0E008
:1012D0002E9FF0011124E951FE4F3181361306C0D3
:1012E0003081381303C03581341304C0FD013196B9
:1012F000E770E8CF81E008958F929F92AF92BF92FE
:10130000DF92EF92FF920F931F93CF93DF93CDB7AE
:10131000DEB72D970FB6F894DEBF0FBECDBF8C01A0
:1013200086E0F801DE01189601900D928A95E1F7AA
:10133000F801E080F580A280B38084819FE1892E4E
:1013400092E0992E9091230291111BC0882309F4F9
:10135000FCC0FF2009F43DC1C8010E944D0788234D
:1013600009F437C187E0F801D40101900D928A9504
:10137000E1F7C4010E941A040E940C090E94FB08B4
:10138000E4C0D09024022091210230912202A501D4
:10139000421B530BDD2009F4DBC0483C510508F02B
:1013A000A6C0882309F4D1C0909120029180809139
:1013B0002502803108F06BC0991228C090911F025D
:1013C0009E1124C0F1105DC08F7080618093250252
:1013D0000E94FB088FE192E00E94F20680912502B4
:1013E000F8018683F12C8F2D2D960FB6F894DEBF71
:1013F0000FBECDBFDF91CF911F910F91FF90EF9066
:10140000DF90BF90AF909F908F900895F11039C0FA
:1014100040E0692D8E2D0E945D0940E0692D8E2DE2
:101420000E945D09F82E8111DDCF888599850E9483
:101430007C08292F22952F70903450F49F70223011
:1014400080F0992399F0F8019681903178F4CBCF10
:101450002A5F2F70223078F0C8010E94F206FD2C1E
:10146000C2CF992319F0882309F4BDCF805E88305C
:1014700008F4B9CFF1CF803F08F4B5CF815F823057
:10148000F7CF80912502816080932502ABCF99121E
:1014900007C090911F029E1103C0FF2009F479C07C
:1014A000C8010E944D07882309F493C0FF2009F466
:1014B00090C080912502803288F020911F023091E7
:1014C00020023A832983BC82AB82909123029D83C0
:1014D0001E828F83CE0101960E94F20687E0F801FA
:1014E000AFE1B2E001900D928A95E1F745CF90917E
:1014F00025029031A0F4488559856A857B858C85C5
:101500009D850E945A078FE192E00E94F20687E0D3
:10151000F40111928A95E9F70E94FB0863CF8823B2
:10152000A1F02091200281812813BACF80911F025F
:101530008E11B6CFF110B4CF9683C8010E94F20687
:1015400087E0F40111928A95E9F7FF24F3944BCFD9
:10155000483C510508F041C08823B9F3FF20C9F188
:1015600090912002818198132AC080911F028E11D0
:1015700026C08091250280FD19C08031B8F0868395
:10158000807F803F39F08681982F907F905F8F70A9
:10159000892B8683C8010E94F20687E0F801AFE13B
:1015A000B2E001900D928A95E1F7E8CE87E0F8016C
:1015B000AFE1B2E001900D928A95E1F7C6CFC80184
:1015C0000E944D0781118ACF80912502816080930E
:1015D0002502C8010E94F206B8CF488559856A8560
:1015E0007B858C859D850E945A0791CFAEE0B0E047
:1015F000ECEFFAE00C94B02C288739874A875B8798
:101600006C877D878E87CE0108960E947C0988238F
:10161000B1F06C85662341F0288539854A855B8564
:101620007D858E850E94640717E08091E501909189
:10163000E60189133EC02E96E3E00C94CC2C87E0A3
:10164000FE013896DE01119601900D928A95E1F720
:101650002091E6014091E5018C85882329F330E053
:10166000C90101968770992750E08417950799F072
:1016700097E0929FD001939FB00D1124A951BE4FC6
:10168000FE01319601900D929A95E1F78093E60163
:101690000E94D908C9CF0E942B071092E601109230
:1016A000E50187E0EFE1F2E0DF011D928A95E9F7BD
:1016B000BBCF189FC001112489519E4F0E947C0905
:1016C000882309F4B8CFE091E5011E9FF0011124B1
:1016D000E951FE4F208131814281538164817581BE
:1016E00086810E9464078091E50190E001968770F1
:1016F00099278093E50199CF682F809104019091FB
:1017000005010E94A7230895682F809104019091FC
:1017100005010E94AA23089580910401909105017A
:101720000E94AD23089580912E0286958695869518
:10173000089580912E028770089590912E029770DF
:1017400081E0911101C080E0089580913A020895EE
:1017500090913A02982B90933A020895982F909581
:1017600080913A02892380933A02089510923A02B6
:10177000089590913902982B909339020895982FEB
:1017800090958091390289238093390208951092AF
:101790003902089508950E94CA0B089590912F026E
:1017A000292F2823222331F08095892380932F022B
:1017B0000E94CB0B089508950E94DB0B0895909131
:1017C0003002292F2823281729F0982B90933002D4
:1017D0000E94DC0B089590913002292F28232223A8
:1017E00031F080958923809330020E94DC0B0895AC
:1017F00080913002882329F01092300280E00E940C
:10180000DC0B0895CF93DF93E0910401F091050183
:1018100080913A028083E0910401F091050180817A
:1018200090913902892B808390913002992381F025
:10183000E0910401F09105018081892B80838091E2
:101840000401909105010E945C2381110E94F80B14
:10185000C0910401D091050148E050E066E272E0D9
:10186000CE010E94772D892B59F088E0FE01A6E277
:10187000B2E001900D928A95E1F7CE010E94F62226
:10188000DF91CF91089508950E94430C089590919F
:101890008E0292FF11C098E0899F90011124622B63
:1018A00060932E020E94A50780912E028695869550
:1018B00086950E94440C08950E94A50708951092F1
:1018C0002E0280E00E94440C089590912E02809593
:1018D000892380932E02282F277021110DC089178C
:1018E00059F090918E0292FF07C086958695869555
:1018F0000E94B1070E945F0C089590918E0292FBA6
:10190000222720F9281769F080FB92F990938E0224
:1019100080918D0290918E020E94C60C82E00E94FE
:10192000650C089580918E0282FB882780F991E0F2
:1019300089270E947D0C089581E00E947D0C089506
:1019400080E00E947D0C08956FEF7FEF80E090E0D3
:101950000E94CF2D089580E090E00E949B2D863E4E
:101960009E4F19F40E94751C089580E0089582E04E
:1019700090E00E948D2D089583E090E00E948D2DCF
:10198000089584E090E00E949B2D0895BC0184E0BE
:1019900090E00E94CF2D0895AB01BC018FE090E054
:1019A0000E94C32D0895AB01BC0183E190E00E9429
:1019B000C32D089560E070E0CB010E94D30C089520
:1019C00060E070E0CB010E94CC0C0E94DA0C08951C
:1019D000A8E0B0E0EEEEFCE00C94B12C66EE7EEFF9
:1019E00080E090E00E94CF2D60E082E090E00E94D5
:1019F000B12D60E083E090E00E94B12D1092E401EF
:101A000060E074E184E090E00E94CF2D60E086E029
:101A100090E00E94B12D6FEF87E090E00E94B12D21
:101A200040E050E0BA0188E090E00E94C32D60E001
:101A300084E290E00E94B12D60E087E190E00E9496
:101A4000B12D60E08CE090E00E94B12D60E08DE06F
:101A500090E00E94B12D19821A821B821C821D8285
:101A60001E821F82188648E050E068E170E0CE01D7
:101A700001960E94A12D40E050E0BA0180E290E082
:101A80000E94C32D80E00E948E1C0E94CD1C0E94EB
:101A9000E00C2896E2E00C94CD2C0E94E80C08950E
:101AA000682F8EE090E00E94B12D0895A6E0B0E08E
:101AB000ECE5FDE00C94AF2C0E947E248C0180911B
:101AC0003B0290913C028017910779F019821A82AB
:101AD0000E947E24BC0149815A8180E090E00E94EE
:101AE000EA0310933C0200933B022696E4E00C9438
:101AF000CB2C0E948A24609342027093430280930D
:101B000044029093450260933E0270933F0280939B
:101B10004002909341020895089508950E948C0D0B
:101B2000089508950E94910D089584E390E10E9424
:101B300074110E948D0D0E948E0D089581E008950C
:101B40000E949E0D08950E949E0D08950895089587
:101B50000E94A60D0E94A70D08950E9450100E9499
:101B6000BE0308950E9475240E94DD1C0E94E810A7
:101B70000E94AD0D0E94C31A0E94920D0895A6E026
:101B8000B0E0E5ECFDE00C94AC2C0E94A00D8111BE
:101B90000CC00E94560D0E94191B0E940A130E943D
:101BA000D1032696E7E00C94C82C0E94F410109103
:101BB0003D0280E00E947310181759F3809146028D
:101BC00081FD0E9479100E94A30DD82E80E00E9412
:101BD0007310182F90913D02891731F1E82EE926F4
:101BE00000E0FF24F3948F2D8E218823B9F0DD20AF
:101BF000A9F009831A820E947E249C838B8381E052
:101C00008D8391E08F2D8123811101C090E0498166
:101C10005A816B817C818D810E94EA030F5FFF0CEA
:101C2000043009F710933D020E94790DB4CF1F9341
:101C3000CF93DF930E94410FEC01811522E59207BB
:101C400008F053C0811540E5940708F0DDC0803EE0
:101C50009105F8F48D3C910508F0AEC0883A9105E5
:101C600080F4853A910508F099C08130910521F002
:101C70000497813A910550F4CE01DF91CF911F91E5
:101C80000895885A91094B9708F48BC0C0E0D0E0C2
:101C9000F3CF811550E49507F8F4C11580E2D80719
:101CA00008F0CBC0C83ED10538F3CE019A95811516
:101CB0009F4160F78D2F0E94E50F182FCE019927C5
:101CC0000E94410F212F30E0322F2227E901CC273B
:101CD000DF71C82BD92BD0CF99270E94410FCC2779
:101CE000DF70C82BD92BD06AC7CF803842E5940764
:101CF000C8F5803652E5950708F067C0C03482E524
:101D0000D807B0F08C2F86958695877020E2829F49
:101D1000C0011124C37021E030E0A90102C0440FCA
:101D2000551FCA95E2F7EA01C82BD92BDC68A4CF6E
:101D3000C03252E5D50708F041C08C2F86958695B4
:101D400020E2829FC0011124C37021E030E0A9018C
:101D500002C0440F551FCA95E2F7EA01C82BD92BE0
:101D6000DD688ACF803C52E5950760F48F71C03AF8
:101D7000D24508F03FC090E0982F8827EC01C46F4F
:101D8000D06A7ACF805C9245809708F07FCFDC2FB5
:101D9000CC27CC27DF71C06FD06A6ECFA497D064F8
:101DA0006BCFC85AD0E0CC0FDD1FCD59DE4F099064
:101DB000D881C02DD46460CFD0655ECFCF71D0E024
:101DC000DC2FCC27C16FD06A57CF86958695877058
:101DD00020E2829FC0011124C37021E030E0A901FC
:101DE00002C0440F551FCA95E2F7EA01C82BD92B50
:101DF000DA6842CF0E94E50FC82FD0E0DC2FCC2755
:101E0000CC27DF71D06238CF8F710E94E50F65E07B
:101E1000D695C7956A95E1F7CF70D0E0DC2FCC2737
:101E2000282F30E084FF05C054E0220F331F5A955D
:101E3000E1F7C22BD32BD0691FCF8D2F8F710E945A
:101E4000E50F182FCE0199270E94410F212F30E076
:101E5000322F222722273F71282B392BE901D2CF9D
:101E6000462F711106C0643020F460E00E94EC201F
:101E7000089580E090E008950E94300F0E94170EB0
:101E80000895803E9105D1F1C8F48133910509F49C
:101E90007FC048F48932910509F46FC08A329105F8
:101EA00009F47DC0089589339105E1F082389105E8
:101EB000C9F08533910509F45BC00895843E91050E
:101EC000D1F148F4823E910531F1833E910541F113
:101ED00081EE90E00895863E9105C1F1873E91051F
:101EE000E1F1089520918D022370211165C02091A8
:101EF0008E0223FF14C089E290E0089520918D02A4
:101F000020FD43C030918E0230FF09C024FF4EC037
:101F100080E090E0089520918D0222FDF7CF089592
:101F200020918D0222FD45C030918E0230FD44C0CB
:101F300024FFF5CFEDCF20918E0221FFF0CF8091CD
:101F40008D0284FDE5CF87EE90E0089520918D020B
:101F500023FFE5CF24FDDCCFF6CF20918D0223FDBA
:101F60002EC030918E0231FFE3CF84EE90E00895D1
:101F700020918D0225FFD3CFBECF20918D0225FD6C
:101F800021C020918E0223FFCACF89E390E00895FB
:101F900020918D0226FFC3CF8AE290E00895209120
:101FA0008D0226FFBCCF81E390E0089583EE90E0A0
:101FB000089582EE90E0089580EE90E0089586EE18
:101FC00090E0089585E390E0AACF90918D0292FF72
:101FD00010C041E0282F2471243009F040E031E0A6
:101FE000282F2871283009F030E0431711F02CE039
:101FF000822793FF10C041E0282F2471243109F07B
:1020000040E031E0282F2871283109F030E04317F3
:1020100011F02CE0822730918E0230FF10C051E089
:10202000282F2171213009F050E041E0282F28713C
:10203000283009F040E0541711F029E0822731FFE1
:1020400010C041E0282F2171213109F040E031E03A
:10205000282F2871283109F030E0431711F029E0CA
:10206000822794FD877E089580E008950E94A40C45
:1020700008950E94F4108FE39CE90197F1F700C0E6
:1020800000000E94F41080E00E94731080FF04C0E2
:102090000E9436100E94DA2408950E943910089593
:1020A0000E94AB0C811102C00E944D0D0E94B70C22
:1020B000809346020E94C10C90938E0280938D0201
:1020C0000E944D100E94BC0C0E9478078091E30191
:1020D0000E949007089508950E946B100895089536
:1020E0000E946F100895E82FF0E0E057FD4F8081C7
:1020F0000895089580EA8A95F1F7089500C008953B
:102100000E947A100895F894E82FE295EF70F0E0BD
:1021100041A18F7021E030E0B90102C0660F771F46
:102120008A95E2F7CB01962F9095942391A392A1E3
:10213000892B82A37894089584E90E94831085E313
:102140000E94831084EF0E94831085EF0E94831009
:1021500086E30E94831008950F931F93CF93DF931C
:10216000EC01062FF894549A5C9878940E947E10A3
:10217000A9E9B1E081E010E09D919F3F81F0E92F56
:10218000E295EF70E05EF0E0208130E09F7002C0E9
:10219000359527959A95E2F72170982F211190E0B7
:1021A000192B880F91E0AD39B90731F784E90E9406
:1021B000831061E0111101C060E0802F0E94801047
:1021C000C00FD11D1883DF91CF911F910F910895FA
:1021D0000E949C101092900210928F0281E00E9447
:1021E00019110E946C100895A1E0B0E0EAEFF0E14F
:1021F0000C94B02C198260E0CE0101960E94AC10C4
:1022000090918F02898121E0981310C020E041E075
:1022100060E972E08FE892E00E941A11182F0E9484
:102220007010812F2196E3E00C94CC2C80938F02C8
:10223000EECF0895A0E0B0E0E0E2F1E10C94AC2C28
:10224000D82EE92EF62E072FC42F222349F081E045
:10225000809349020E947E24909348028093470213
:1022600010914902111107C010E0812FCDB7DEB7E0
:10227000E7E00C94C82C80914702909148020E949C
:10228000A724059788F3D0E0AE016D2D7E2D8F2D0C
:10229000902F0E94772D892B51F0AE016D2D7E2D50
:1022A0008F2D902F0E94842D10924902DECF10E0D6
:1022B000FBCF0E9467260E94B20D0E9474260895EB
:1022C0000E9479260E94BF0D0E94932608950E94C5
:1022D00017240E944D260E94950D0E9459110E94BC
:1022E00060110E94A80DFBCF9093D9018093D80173
:1022F0000895282F35EB2303C001112497FF04C054
:1023000080589109892F089580589F4FFBCF809165
:10231000500280FF0DC060910B0170E0660F771FC7
:1023200060387105C0F561157105B9F1862F089502
:1023300081FF07C060910B0184E0689FB001112408
:10234000EFCF82FF04C060910B0188E0F6CF80914F
:102350004F028823E9F090910A0160910B0170E02F
:10236000891730F093E0660F771F9A95E1F7D8CF81
:10237000869F9001879F300D112483E0220F331F29
:102380008A95E1F7692F70E0C9010E942D2CC8CF12
:1023900068E070E0CBCF8FE7089581E008958091E9
:1023A000500280FF0CC06091070170E07595679541
:1023B000759567956115710561F1862F089581FF07
:1023C00006C06091070170E075956795F3CF609145
:1023D000070170E082FD15C020914E022223B1F06A
:1023E000909106016091070170E0291750F4269F33
:1023F000A001279F500D1124692F70E0CA010E948F
:102400002D2C60387105B0F28FE7089561E070E01F
:10241000D4CF81E00895E3E3E80FE331E0F5F0E0A5
:10242000EE5EF14D0C94632C0E9487118195809390
:10243000540208950E948711FACF0E948711819556
:102440008093530208950E948711FACF0E94CF1102
:102450008093550208950E94CF118195F9CF0E9473
:10246000CF1181958093560208950E94CF11FACF23
:10247000815D990B21E030E001C0220F8A95EAF7D7
:1024800080915202822B80935202089580915002D3
:102490008160809350020895809150028260F9CF4C
:1024A000809150028460F5CF409153028D3C59F4E5
:1024B0008091540287FF0DC010925402442359F4B6
:1024C00010924F0208C08E3C81F48091540218167D
:1024D0009CF3442381F08091550290915602892B00
:1024E000811159C010924E0208958F3C41F447FF6C
:1024F000F0CF10925302809154028823E0CF803DA8
:1025000019F41416B4F3E5CF90915502893D29F4DE
:102510001916FCF610925502DCCF8A3D19F497FF8C
:10252000D8CFF8CF909156028B3D29F497FFD1CFA9
:1025300010925602CECF8C3D19F41916CCF3C9CFA8
:102540009FE2980F983090F4815D990B21E030E084
:10255000B90102C0660F771F8A95E2F7CB0180951B
:1025600090915202892380935202B3CF8D3D31F472
:10257000809150028E7F80935002ABCF8E3D21F42C
:10258000809150028D7FF7CF8F3D09F0A2CF8091CF
:1025900050028B7FF0CF08950E947E242091530239
:1025A00030915402232B222321F080934C029093EC
:1025B0004D022091550230915602232B222321F007
:1025C00080934A0290934B0281E592E00E9401239E
:1025D000089586E0E1E5F2E0DF011D928A95E9F7D2
:1025E00010924F0210924E02109250020895FC0178
:1025F000828181110DC0838181110AC08481811182
:1026000007C081E09581911101C080E0817008953B
:1026100081E0FCCFA6E0B0E0E0E1F3E10C94AE2C69
:1026200086E0E1E5F2E09E012F5F3F4FD901019086
:102630000D928A95E1F71092530210925402109273
:102640005502109256028B819C81892B8901882327
:1026500091F080914C0290914D020E94A7249C0120
:1026600080914F028823C9F140910C0150E042173C
:10267000530708F43FC08D819E81892B882399F0F0
:1026800080914A0290914B020E94A7249C01809164
:102690004E02882309F467C04091080150E04217B8
:1026A000530708F46EC0B80181E592E00E94B5239B
:1026B000811105C081E592E00E94F71281110E940C
:1026C000CC1286E0F801A1E5B2E001900D928A9566
:1026D000E1F72696E5E00C94CA2C40910D019AE0B2
:1026E000499FA00111244217530728F68F5F80935A
:1026F0004F0202C08F3FD1F7FB80FF2059F00E94AC
:10270000871191E01F140CF09FEF899F802D1124F9
:1027100080935302FC80FF2059F00E94871191E0C2
:102720001F140CF09FEF899F802D11248093540279
:1027300080915302882309F49ECFF0905402FF2029
:1027400009F499CF0E947911811101C081E0809331
:1027500053028F2D0E947911882319F0809354021F
:102760008ACF81E0FBCF409109019AE0499FA00107
:1027700011244217530708F096CF8F5F80934E02C3
:1027800002C08F3FD1F7FD80FF2059F00E94CF118A
:1027900091E01F140CF09FEF899F802D11248093EE
:1027A0005502FE80FF2059F00E94CF1191E01F14C6
:1027B0000CF09FEF899F802D112480935602809109
:1027C0005502882309F46FCFF0905602FF2009F4D8
:1027D0006ACF0E947911811101C081E08093550276
:1027E0008F2D0E947911882319F0809356025BCFB8
:1027F00081E0FBCFA0E0B0E0E0E0F4E10C94A92C94
:10280000E82F71110DC0442321F0F0E0EA51FE4F92
:102810008491682F782FCDB7DEB7EAE00C94C52CF1
:10282000262F30E0C72FD0E0F0E0442321F0EA511A
:10283000FE4FE491F0E086E0829F7001839FF00CF0
:1028400011240FEF10E0C701B8010E94192CAB0151
:10285000220F331F65E5649FC001659F900D112411
:10286000281B390BC22ECC0CC20EC8018C1B9D0B31
:102870008E9F90018F9F300D9E9F300D1124832FCE
:10288000CC9EB001CD9E700D1124672F7727580183
:10289000A61AB70AAE9ED001AF9EB00DBE9EB00D77
:1028A00011247B2F5801AC18B1086501CC9E500152
:1028B000CD9EB00CDC9EB00C1124AB2CBB240A19AD
:1028C0001B090E9FE0010F9FD00D1E9FD00D1124FC
:1028D0006E2F43305105C9F09CEFE91693E0F906DD
:1028E00050F44130510509F496CF4230510589F03A
:1028F0007E2F6D2F90CF4430510571F04630510539
:10290000B9F3632F8B2F7E2F86CF6B2F732F8E2FD4
:1029100082CF732F8D2F7FCF7D2F632FF8CF41E094
:102920000E94FA13089508950E948F140895CF937A
:10293000DF93982F762F842FE901692F0E9494143A
:10294000798368838A83DF91CF910895453608F0B3
:1029500044E60E949714089580919102823060F4B9
:10296000817082608093910280919402853618F084
:1029700084E68093940208958635B0F3817084656F
:10298000F1CF4F925F926F927F928F929F92AF9210
:10299000BF92CF92DF92EF92FF920F9388E090E088
:1029A0000E94952D2B013C0184E290E00E948D2D28
:1029B000282F30E040E050E060E070E080E090E000
:1029C00000E20E94D82C53014201C12CD12C760187
:1029D000242939294A295B296C297D298E299F2997
:1029E0000F91FF90EF90DF90CF90BF90AF909F90AE
:1029F0008F907F906F905F904F900895A0E0B0E02F
:102A0000E4E0F5E10C94AB2C8901D42FC52F6B01C8
:102A10007C010E94AC14A8016D2F7C2F88E090E00F
:102A20000E94C32D98014D2F5C2FB601C70100E213
:102A30000E94F32C622F84E290E00E94B12DCDB76A
:102A4000DEB7E8E00C94C72CE1E9F2E020813181A7
:102A50004281538164817581868197810E94FE1431
:102A60000895E1E9F2E083E0808311828FEF8283B1
:102A700084E683831482758123E030E04FEF54E6CF
:102A800060E0868197810E94FE14089580919102F2
:102A900080FF02C08695089580E00895809191029C
:102AA0008170089590919502933018F49F5F9093F0
:102AB0009502882391F020919102309192024091E9
:102AC00093025091940260919502709196028091C8
:102AD0009702909198020E94FE14089581E00E944E
:102AE0005215089590919502992319F09150909361
:102AF0009502882391F020919102309192024091A9
:102B00009302509194026091950270919602809187
:102B10009702909198020E94FE14089581E00E940D
:102B20007215089580919502089580939502662309
:102B300089F020919102309192024091930250913C
:102B4000940270919602682F80919702909198025A
:102B50000E94FE14089560E00E94951508958091EA
:102B600092020895809193020895809194020895AD
:102B700070E00E94471C08956091120180919102BB
:102B800080FF0DC02091110130E0C901880F991F0D
:102B9000820F931F87569D4F0E94B815089580910C
:102BA000130190911401282F30E0F901EE0FFF1F5F
:102BB000E20FF31FE756FD4F891720F711821082AD
:102BC00012828F5F3396F8CF9091910290FF11C0DF
:102BD0009091130150911401292F30E0F901EE0F6B
:102BE000FF1FE20FF31FE756FD4F951718F00E94E5
:102BF000BC1508958183608342839F5F3396F5CF30
:102C0000A3E0B0E0E6E0F6E10C94B12C90919102E3
:102C100090FF0AC09E012F5F3F4F0E94A6144B8178
:102C200069818A810E94E4152396E2E00C94CD2C00
:102C3000CF93DF93EC01EC81F0E0EF51FF4F449133
:102C4000E1E9F2E0628181810E9400168C818F5F50
:102C50008C83DF91CF910895CF93DF93EC01E1E96D
:102C6000F2E0438162818C810E9400168C818F5F2B
:102C70008C83DF91CF910895A3E0B0E0E2E4F6E128
:102C80000C94AF2C8C018091570281110AC09E01D7
:102C90002F5F3F4F44E66FEF0E94A6148A81809316
:102CA0005702F8016481613049F06230D1F08091BF
:102CB000570240E0662331F040E015C060915702B2
:102CC00040E080E00E94E415F801848190E00196E4
:102CD00063E070E00E942D2C84832396E4E00C9442
:102CE000CB2C4091570280E060E0ECCFA3E0B0E055
:102CF000ECE7F6E10C94A92CF82ED62EE42EB22E99
:102D00009091910290FF2EC0E92FE695AE2FB0E092
:102D1000A356BE4F8C91809375029E7F923031F501
:102D20009E012F5F3F4F8F2D0E94A6144B8169811A
:102D30008A810E94E415F0929202D0929302E0926E
:102D40009402BB2079F020919102609195027091DC
:102D500096023F2D4D2D5E2D809197029091980205
:102D60000E94FE142396EAE00C94C52C823019F4DC
:102D7000E0909402E0CF863019F4F0909202DBCF1D
:102D80008930D9F38931B9F6E9518E2F8170A82E97
:102D9000E695F0E0EF51FE4FE491C12C0E2F10E0CC
:102DA00060911501C61618F00E94BC15C4CF2C2DD9
:102DB00030E0C09EC001C19E900D112470E00E94C1
:102DC000192C8F2DA11013C0860F90911301A9010A
:102DD000490F511D9A01220F331F240F351F27560B
:102DE0003D4F4E2D6D2D0E94A614C394D9CF861B46
:102DF000ECCF282FE1E9F2E0818143816281885F95
:102E00000E947616089581E00E94F9160895282FF1
:102E1000E1E9F2E081814381628188500E94761667
:102E2000089581E00E9407170895282FE1E9F2E054
:102E3000628131E1630F08F46FEF438181810E9469
:102E40007616089581E00E9415170895282FE1E96C
:102E5000F2E0628131E1631B08F460E0438181812B
:102E60000E947616089581E00E9426170895282F63
:102E7000E1E9F2E0438131E1430F08F44FEF628171
:102E800081810E947616089581E00E943717089587
:102E9000282FE1E9F2E0438131E1431B08F440E0EF
:102EA000628181810E947616089581E00E94481710
:102EB000089520E00E9476160895EF92FF921F93E6
:102EC000CF93DF93EC0110E0EE24EA94F12C6091B3
:102ED0001501161770F00E94BC159A818C8190FF25
:102EE00025C08F5F8C83DF91CF911F91FF90EF9072
:102EF000089580911301810F9927991F9C01220F3A
:102F0000331F280F391F27563D4F70E0C7010E941D
:102F10002D2C962F8C814091940260919302199FE1
:102F2000800D11240E94A6141F5FD1CF8150DACFEB
:102F3000A0E0B0E0EEE9F7E10C94AA2CFC0182815C
:102F400001E080FD0FEF10E080911501181798F057
:102F50000E94BC1580915902013009F04EC08111C8
:102F600002C080911501815080935902CDB7DEB720
:102F7000E9E00C94C62C80911301C12ED12C8C0D4C
:102F80009D2D911DEC01CC0FDD1FC80FD91FC75619
:102F9000DD4F198218821A8234E0E32EF12CB12C15
:102FA000809159028B0D853014F18370082E000C2E
:102FB000990BC816D90691F4809194028E9DA001B8
:102FC0008F9D500D112455954795559547959E0118
:102FD00060919302809192020E94A614B00EF1E0DB
:102FE000EF1AF108E114F104D9F61F5FADCF87FFA6
:102FF000DDCF90911501890FD9CF90E001966091B6
:10300000150170E00E942D2CAFCF0F931F93CF932B
:103010008091130190911401282F30E0F901EE0FF7
:10302000FF1FE20FF31FE756FD4F891730F1C0E095
:1030300060911501C61738F10E94BC1520910F014F
:1030400080915802820F8093580290911001920F44
:1030500090931001191654F4082E000C990B40910E
:1030600015014150550B841795071CF021952093AD
:103070000F01CF911F910F9108951182108212823A
:103080008F5F3396D2CF0C2F10E070E0C8010E9402
:103090002D2C90911301980F892F90E020915802C8
:1030A000022E000C330BFC01EE0FFF1FE80FF91F7F
:1030B00002171307ACF020911001022E000C330B05
:1030C000201731076CF09F0127563D4F4091940225
:1030D00060919302809192020E94A614CF5FA8CFC4
:1030E000E756FD4F118210821282F8CFAEE0B0E0B9
:1030F000ECE7F8E10C94AD2C8D879E87AD85BE85FD
:1031000014961C91212F30E0D9010E94782C9B014C
:10311000AC010E948E2C69837A838B839C83E0E2CE
:10312000F0E0E11BF109A5E5B0E09B01AC010E94D4
:103130008E2C69877A878B879C879F01DF010E948D
:10314000702C9B01AC010E94992C6D837E838F8330
:1031500098879B01AC0189819A81AB81BC81280F42
:10316000391F4A1F5B1F69857A858B859C850E9464
:10317000412C022F30E00A3248F5A901440F551FB7
:10318000420F531F55954795142F1095F12C85E547
:10319000E82EE01A80911501F81630F10E94BC1556
:1031A000AD85BE8514969C9181E0992319F09032EB
:1031B00019F48FEF80930E0180910E01890FED8538
:1031C000FE8584832E96E6E00C94C92C85E590E07C
:1031D000821B930BAC01440F551F480F591F57FF1B
:1031E000D1CF4F5F5F4FCECF8E2DF1FC802F40911E
:1031F00013014F0D5527551F9A01220F331F240F1E
:10320000351F27563D4F412F609193020E94A6140F
:10321000F394C0CF0F931F93CF93DF93EC0100E0A3
:1032200010E040911501842F90E0081719076CF009
:103230000E94BC158C8190E00196817099278C8347
:10324000DF91CF911F910F91089580911301800F0D
:10325000912F911D9C01220F331F280F391F2756D4
:103260003D4F9C816091930280919202469550E07F
:10327000041715074CF4992349F0409194020E94D9
:10328000A6140F5F1F4FCDCF9923B9F340E0F7CFBE
:10329000A0E0B0E0EEE4F9E10C94A32CFC01628024
:1032A000448081E08483E1EEF0E07490E0E6F1E0B8
:1032B000E491C0919402C695C158D0E0CC0FDD1FB7
:1032C000CD2FDD27812C75E0972EAA24AA94B12C4E
:1032D00055245A94E719EE2EF12C80911501881689
:1032E00038F00E94BC15CDB7DEB7E0E10C94BF2CDE
:1032F000C82CD12C82E0861568F09C9CF0019D9C26
:10330000F00D1124E65AFD4F809192028083809146
:1033100093028183411023C09C9CF0019D9CF00D81
:103320001124E65AFD4F13821282809113018C0DF5
:103330009D2D911D9C01220F331F280F391F2756E9
:103340003D4F9C9CF0019D9CF00D1124E65AFD4FD1
:103350004281618180810E94A6148394BECF9C9C8F
:1033600080019D9C100D1124065A1D4FF801838188
:103370008823F1F081508383589EC0011124648119
:1033800070E00E94192CFB01FF27EF51FF4F849141
:10339000E82FE7195E9EC0011124B7010E94192C85
:1033A00080919402689FB0011124F8017283BDCF0F
:1033B0000E945A2DB5010E942D2C8C179D070CF0F0
:1033C000B4CFF2E0F61598F40E945A2DB5010E9490
:1033D0002D2CF80180830E945A2D2091930226956E
:1033E000622F70E00E942D2C280FF80121839C9CF5
:1033F000F0019D9CF00D1124E65AFD4F1282809140
:103400009402893C58F088EC9C9CF0019D9CF00D46
:103410001124E65AFD4F8483838387CF8431A0F73C
:1034200084E1F2CFE1E9F2E020812E7F2083318137
:103430004281538164817581868197810E94FE1447
:10344000109276020E94BC150895E1E9F2E08081B5
:103450008E7F8083109276020E94BC150895609141
:103460009102669570E04BE050E086E191E00E94A9
:103470006A2D892B19F481E0809376020E947E24C4
:1034800090936F0280936E0208959091910290FF45
:1034900038C08823B9F18B32B8F58F77282F220FE7
:1034A000809191028170282B20939102662381F0F4
:1034B0003091920240919302509194026091950252
:1034C0007091960280919702909198020E94FE144A
:1034D00060919102669570E04BE050E086E191E0EA
:1034E0000E946A2D892B91F01092760281E08093E0
:1034F00071024091940260919302809192020E9425
:103500005917089581E0CACF8AE2C8CF0E942F1AC6
:10351000EDCF682F8091910286958F5F8B3208F0F6
:1035200081E00E94451A089581E00E94891A089559
:10353000682F9091910296958FEF890F913009F441
:103540008AE20E94451A089581E00E94981A08951F
:1035500061E00E94451A0895E1E9F2E0808181600E
:10356000808386950E94A81A08958091910280FF19
:1035700003C00E94121A08950E94AC1A089560E0D8
:103580000E94451A08958091740281113EC00E94E4
:10359000AB0C811104C00E944D0D0E9431150E9498
:1035A000C11420939102309392024093930250935E
:1035B0009402609395027093960280939702909381
:1035C00098022230A0F40E9431150E94C114209369
:1035D000910230939202409393025093940260932D
:1035E00095027093960280939702909398020E949E
:1035F000AC14109276028091910280FF03C08695F0
:103600000E94BF1A81E0809374020895E1E9F2E01C
:1036100080818160808386950E94BF1A0895809181
:10362000910280FF03C00E94251A08950E94061B84
:1036300008950F931F93CF93DF9380917602882391
:10364000B9F180917502E0919102E695E81BE09353
:103650007002823091F5F0E0E352FF4FE491CE2FFB
:10366000D0E008E116E180917102882361F01092A8
:1036700071020E947E2490936F0280936E021092DA
:103680007302109272020E947E2420916E02309189
:103690006F02821B930B8F3F9F4750F42C0F3D1FEF
:1036A00030936F0220936E028EE692E0F801099546
:1036B000DF91CF911F910F910895C8E2D0E006E706
:1036C00018E1883181F2C0F48F3009F43AC048F42F
:1036D000863021F1893059F1C0EDD7E003E914E1DA
:1036E000C2CF8531C9F7F0E0EF52FF4FE491CE2F02
:1036F000D0E005E018E1B7CFC4EFD1E00AE019E16E
:10370000843209F4B0CF853231F1833229F7EFECFE
:10371000F0E0C591D4910CE316E1A5CFF0E0E652BC
:10372000FF4FE491CE2FD0E00CE216E19CCFE6955E
:10373000F0E0E952FF4FE491CE2FD0E00DE517E124
:1037400092CFE695F0E0EC52FF4FE491CE2FD0E01F
:1037500008E917E188CF8E2F63E00E940D2CE92F36
:10376000F0E0E453FF4FE491CE2FD0E008E419E1FC
:103770007ACFFA01882311F009950895FB01FCCF57
:10378000CF93DF93C82FD62F0E9446158C1748F091
:103790000E9446158D1728F40E94941ADF91CF914C
:1037A00008958C2F0E94A81AF9CF1F93CF93DF930F
:1037B000EC01FB011581111168C00E94A50B8272FA
:1037C000FE01E052F847E531F10508F05EC0EB5D1F
:1037D000F14D0C94632C0E94B51A812FDF91CF918B
:1037E0001F91089544EA5AE164E97AE10E94B91B05
:1037F000F4CF44E95AE164EA7AE1F8CF41E157E1D4
:1038000063E077E1F3CF43E057E161E177E1EECFA9
:1038100043E357E162E277E1E9CF42E257E163E354
:1038200077E1E4CF45E557E164E477E1DFCF44E4B5
:1038300057E165E577E1DACF4EE855E16EE675E1EF
:10384000D5CF4EE655E16EE875E1D0CF81E00E941C
:10385000A81AC3CF65E082E00E94C01BBECF68E01B
:1038600086E0FACF6EE089E0F7CF64E18FE0F4CF35
:1038700067E185E1F1CF88E1EACF62E289E1ECCF4F
:1038800083E2E5CF6AE285E2E7CF11E0A6CF9C01B3
:10389000AB01539A6BB1677F7BB17860EFB7F89457
:1038A000CA01880F991F840F951F820F931F8217DB
:1038B000930741F4EFBF8FE594E00197F1F700C063
:1038C00000000895D9014D919D0158E07BB9000099
:1038D00000C047FF6BB9440F000000C000C000C02B
:1038E0006BB900C05A9591F7E2CF85E290E00E9453
:1038F0008D2D833289F486E290E00E948D2D8130F7
:1039000059F487E290E00E948D2D91E0863109F014
:1039100090E0892F8170089580E0FCCF882381F0AA
:1039200063E285E290E00E94B12D61E086E290E0E2
:103930000E94B12D66E187E290E00E94B12D0895CA
:103940006FEF85E290E00E94B12D6FEF86E290E08C
:103950000E94B12D6FEFEFCF0895A4E0B0E0E3EB4C
:10396000FCE10C94B12C88E290E00E948D2D282F70
:1039700030E040E050E0CA01B9012496E2E00C9446
:10398000CD2C0895CF93C62F0E94C11C6C2F88E2C6
:1039900090E00E94B12DCF91089580E00E948E1C8E
:1039A00060E070E0CB010E94C21C0E9496200E9441
:1039B000402181E00E948E1C08950E94AC1C0E9450
:1039C000AD1C0E94C11C0E94751C811102C00E9486
:1039D000CD1C08950E940F1B08959C01FB01858159
:1039E000882351F0A90157574038510530F4822FF0
:1039F0000E94502180E0089581E008952FEFFC019E
:103A00002083089580E00895CF93DF93EC018881AF
:103A1000833039F138F4813071F08230C1F0DF91B8
:103A2000CF9108958430D9F70E94AF1589830E9401
:103A3000B2158A83F4CF0E94B5152FEF829FC00183
:103A4000112464E670E00E94192C6983E8CF0E947B
:103A50004E15882321F00E9446158983E0CF80E02F
:103A6000FCCF0E949215F9CFCF93DF93EC018881B0
:103A7000833081F138F4813069F08230F9F0DF91E0
:103A8000CF9108958430D9F70E94B515482F6A81E7
:103A9000898111C0898124E6829FC00111246FEFC2
:103AA00070E00E94192CD62F0E94B215C82F0E94D8
:103AB000AF154D2F6C2F0E945917E1CF89818111CD
:103AC00003C00E94251ADBCF0E94061B89810E9439
:103AD000BF1AD5CF89810E94AB15D1CFFC019C01C3
:103AE0002E5F3F4F9081983041F0993051F09730E0
:103AF00059F4C9010E94341D0895C9010E94041D92
:103B000008950E94241508958FEF80830895FC0185
:103B10002181223019F40E946E1D08950E94FE1C1E
:103B20000895AEE0B0E0E7E9FDE10C94B02C8D83A0
:103B30009E83162F8D819E810E94021D811115C0CA
:103B4000AD81BE81EC91E150E331F0F4F0E0E65C50
:103B5000F14D0C94632CED81FE8111828CE0828307
:103B6000612F8D819E810E9442252E96E3E00C9468
:103B7000CC2CAD81BE8111968C91833059F148F4E3
:103B8000813081F08230C9F08FEFAD81BE818C939E
:103B9000E7CF8430C9F7ED81FE811282138214824F
:103BA0001582DECF0E948A240E94692CED81FE815D
:103BB0006283738384839583D3CF0E94AD1C0E945C
:103BC000692CAD81BE8112966D937D938D939C93EC
:103BD0001597C6CFED81FE8182818111C1CF0E94F0
:103BE0007310AD81BE8113968C93BACFED81FE81A7
:103BF0008181823041F0853039F6ED81FE8182810C
:103C00000E94EA1CADCFAD81BE8112968D919D912F
:103C10000D90BC91A02DBC01CD010E94692C0E9489
:103C2000C21C9ECFAD81BE8113964C911397129604
:103C30006C91129711968C910E944A20982789279F
:103C40009827ED81FE81958384838ACFAD81BE81E3
:103C500014962D913C9115973227232732271396DE
:103C60004C91139712966C91129711968C910E9419
:103C7000742076CF0E94962073CF612F8D819E8114
:103C80000E94871D6DCF0E94F820ED81FE81818307
:103C900067CF0E94FA20982789279827AD81BE8197
:103CA00012969C938E9311975BCFED81FE81638179
:103CB00070E081819281AF014C5F5F4F9827892727
:103CC00098270E94FD204CCFAD81BE8113966C9148
:103CD000139770E011968D919C911297AD014C5FF6
:103CE0005F4F9827892798270E941F2139CF0E946C
:103CF000402136CF0E944820C8CFAD81BE811396A7
:103D00006C91139770E011968D919C911297AD0173
:103D10004C5F5F4F9827892798270E94AE2020CFBD
:103D2000ED81FE81638170E081819281AF014C5F02
:103D30005F4F9827892798270E94CD2011CFCF93D6
:103D4000DF93EC01FB018581882309F4D2C09E0139
:103D500030572332310508F0B2C00E94C10C909355
:103D60008E0280938D02FE01E150F047E232F105B0
:103D700020F4E35BF14D0C94632C80918D02816003
:103D800080938D0293C080918E02886080938E0212
:103D90008DC080918D028260F3CF80918D0284600E
:103DA000EFCF80918D028860EBCF80918E02816091
:103DB000EDCF80918E028260E9CF80918D0280618B
:103DC000DFCF80918D028062DBCF80918D02806495
:103DD000D7CF0E942B0780918D028068D1CF809130
:103DE0008D028C60CDCF80918E028360CFCF809189
:103DF0008D028E7FC5CF80918E02877FC7CF809145
:103E00008D028D7FBDCF80918D028B7FB9CF809148
:103E10008D02877FB5CF80918E028E7FB7CF809144
:103E20008E028D7FB3CF80918D028F7EA9CF80913E
:103E30008D028F7DA5CF80918D028F7BA1CF0E94B7
:103E40002B0780918D028F779BCF80918D02837F8E
:103E500097CF80918E028C7F99CF80918D0282FBCB
:103E6000992790F921E0922790FB82F990FB83F942
:103E700087CF80918E02982F909591708E7F892B9D
:103E800090FB81F983CF90918D02892F8F7B96FFD4
:103E9000806476CF0E942B0790918D02892F97FB2B
:103EA00087F980586DCF81E00E94500D80918D027E
:103EB00090918E020E94C60C0E942B0780E0DF9139
:103EC000CF91089580E0F0CF90918D02892F8F7E61
:103ED00094FF806155CF90918D02892F8E7F90FF46
:103EE00081604ECF90918E02892F877F93FF8860EB
:103EF0004DCF81E0E4CFFF920F931F93CF93DF93D9
:103F0000E82FF0E0EA51FD4FF490282F26952695F2
:103F1000269530E0F901EA57FC4F94918770F9013A
:103F2000EA58FC4F049110E0082E02C01595079541
:103F30000A94E2F701701127F901EA59FC4FC49184
:103F4000D0E0082E02C0D595C7950A94E2F7C1705B
:103F5000DD27E92FF0E002C0F595E7958A95E2F7B5
:103F6000E0FD10C001151105C1F48F2D0E94C4049D
:103F7000CD2B19F08CE20E94C404CDB7DEB7E5E08A
:103F80000C94CA2C81EE0E942D040115110579F4C0
:103F90008F2D0E94C40481EE07C086EE0E942D047E
:103FA0008F2D0E94C40486EE0E947904E1CF86EE34
:103FB0000E942D048F2D0E94C40486EE0E94790475
:103FC000EACFEF92FF921F93CF93DF93EC01162F6E
:103FD0008881882309F456C0813009F050C0898156
:103FE0008130A1F47E0122E0E20EF11C8A810E9460
:103FF000C404E7012196812F882351F3EFE9FFE004
:104000003197F1F700C000008150F6CF823041F4C3
:104010007E0182E0E80EF11C8A810E942D04E9CF26
:10402000833041F47E01E2E0EE0EF11C8A810E94B1
:104030007904DFCF843011F02196DCCF2A812296DB
:1040400080E090E06AE0AE014F5F5F4F2053330B9A
:104050002A30310548F0019768F2EFE9FFE0319727
:10406000F1F700C00000F7CF689FF001699FF00DE5
:104070001124C9018E0F9F1F2981EA01E4CF0E94FC
:104080007B1FB8CFDF91CF911F91FF90EF900895E4
:1040900084E008950F931F93CF93DF93982F942B71
:1040A0009430F8F461111DC028E0829F8001112432
:1040B00050E0440F551F040F151FC80189960E9438
:1040C0008D2DC82FD0E0DC2FCC27C8018A960E9406
:1040D0008D2D9E01282BC901DF91CF911F910F914A
:1040E000089580E090E0F8CF1F93CF93DF93962F51
:1040F000122F632F282F242B2430A0F4911112C0EB
:1041000098E0899FE001112450E0440F551FC40F2F
:10411000D51FCE0189960E94B12D612FCE018A96BE
:104120000E94B12DDF91CF911F910895CF93DF931E
:10413000D0E0C0E04C2F60E08D2F0E94A3029C01D4
:104140004C2F60E08D2F0E947420CF5FC43091F718
:10415000DF5FD43071F7DF91CF910895EF92FF9236
:104160000F931F93CF93DF938C01EA017A01E60E40
:10417000F71ECE15DF0529F4CDB7DEB7E6E00C94C7
:10418000C92C80E00032110520F4C80189960E94F4
:104190008D2D89930F5F1F4FECCFEF92FF920F93FE
:1041A0001F93CF93DF938C01EA017A01E60EF71E8D
:1041B000CE15DF0529F4CDB7DEB7E6E00C94C92CA7
:1041C0000032110528F46881C80189960E94B12D3A
:1041D00021960F5F1F4FECCF982F942B943028F42B
:1041E000611103C00E944A20089580E090E0089584
:1041F00080E1089587EB93E00895EF92FF920F938B
:104200001F93CF93DF938C01EA017A01E60EF71E2C
:10421000CE15DF0529F4CDB7DEB7E6E00C94C92C46
:10422000073B83E0180748F4C801875B9F4F0E9453
:104230008D2D89930F5F1F4FEBCF80E0FACFEF9268
:10424000FF920F931F93CF93DF938C01EA017A01C2
:10425000E60EF71ECE15DF0529F4CDB7DEB7E6E092
:104260000C94C92C073B83E0180730F46881C8011F
:10427000875B9F4F0E94B12D21960F5F1F4FEACFA2
:10428000CF93DF93C9E4D0E060E0CE010E94B12D6E
:104290002196C11584E0D807B9F7DF91CF91089531
:1042A000A8E0B0E0E6E5F1E20C94AB2CF82E2FE0AC
:1042B000281708F46FC08FEF93E00E948D2D8111B5
:1042C00069C009E410E0F11038C01A821982FE01B9
:1042D000339686E0DF011D928A95E9F76801BFEF0A
:1042E000CB1ADB0AC8010E948D2D89831A8288238C
:1042F00009F450C08130D1F4780122E0E20EF11CC3
:10430000C6010E948D2D8A83882309F443C09FEF44
:10431000980F9330F8F4680183E0C80ED11CC701F0
:104320000E948D2D8B838823A9F11C8265E0CE012C
:1043300001960E94E11F8601D1CF011584E0180784
:1043400049F1C8010E948D2D0F5F1F4F8111F5CFDC
:10435000FA94B9CF8430B9F402E010E0C701AFEFAE
:10436000EA1AFA0A0E948D2DE1E0F0E0EC0FFD1F41
:10437000E00FF11F8083882369F08C3731F4FE0150
:10438000E00FF11F12826701D1CF0F5F1F4F07307F
:10439000110521F72896E8E00C94C72CCF93DF9302
:1043A000EB0186319C4719F50E94A50B9D8199234D
:1043B000A1F08A7A91E0811101C090E09093770298
:1043C000882349F085E30E947C0B0E94020C80E068
:1043D000DF91CF91089589E2F6CF8091770288230B
:1043E00021F085E30E94840BF0CF89E2FBCF81E0CE
:1043F000EFCF0F931F93CF93DF93C42FD22FFC01E6
:1044000085818823C9F040937A020E947E2490938C
:1044100079028093780280E28C0F883040F4C77074
:1044200081E001C0880FCA95EAF70E94CD04DF91B0
:10443000CF911F910F91089510917A0214133CC0EF
:1044400080917802909179020E94A724883C91057E
:1044500098F5C0E2CD0F1D1741F180E2810F883041
:1044600040F4177081E001C0880F1A95EAF70E94A6
:10447000D404C83020F0802F0E94C404D8CF91E02B
:104480008D2F877001C0990F8A95EAF7892F0E94B6
:10449000CD04802F0E94C404D77081E001C0880F32
:1044A000DA95EAF70E94D404C2CF802F0E94C40498
:1044B000C83008F0BCCFF0CF80E28C0F883008F015
:1044C000B6CFC77081E001C0880FCA95EAF7EACF7E
:1044D0000F93FC01CB01E851FC47E730F10590F563
:1044E000E159F14D0C94632C06E221EE41EE6AE1B4
:1044F0007CE70E94F92180E00F91089507E225EE04
:1045000045EE6BE17CE7F5CF06E221EE40EE68E197
:104510007CE7EFCF07E225EE44EE69E17CE7E9CFE7
:1045200006E221EE42EE6CE17CE7E3CF07E225EE06
:1045300046EE6DE17CE7DDCF08E221E045EE6EE17D
:104540007CE7D7CFFB018581811110927A0281E04F
:10455000D3CFCF93DF939C01FB0127378CE738073C
:1045600039F028373C47F1F081E0DF91CF91089591
:104570008581882391F00E94DB220E94A5070E947A
:10458000E122D82F0E94DE22C82F0E94DB224D2F6D
:104590006C2F0E94CF0880E0E8CF0E94DB220E94AF
:1045A000B107EDCF8581882319F00E94DE22E5CF87
:1045B0000E94DE22F4CF8091230108958091220190
:1045C00008958091210108959093800280937F0245
:1045D0000895E0917F02F0918002309729F00190D8
:1045E000F081E02D0995089580E00895E0917F0223
:1045F000F0918002309721F00280F381E02D09953F
:104600000895DC01E0917F02F0918002309739F04B
:1046100082E08C930480F581E02DCD010995089509
:10462000A3E0B0E0E6E1F3E20C94B12C9C018091B0
:104630007D0290917E0282179307A1F030937E0253
:1046400020937D02E0917F02F0918002309751F03B
:1046500083E089833B832A830680F781E02DCE01A6
:10466000019609952396E2E00C94CD2CA3E0B0E0EE
:10467000ECE3F3E20C94B12C9C0180917B029091CD
:104680007C0282179307A1F030937C0220937B0277
:10469000E0917F02F0918002309751F084E08983AD
:1046A0003B832A830680F781E02DCE010196099590
:1046B0002396E2E00C94CD2C9C01AC014E5F5F4F41
:1046C000285F3F4F80E0FA0190814F5F5F4F91116B
:1046D0008F5F24173507B9F708959C01662351F0C1
:1046E000FC013296285F3F4F8191861729F0E2172F
:1046F000F307D1F780E0089581E008959C01FC0163
:1047000032968FEF90E04191461751F08F3F19F4A8
:10471000411101C0892F9F5F9630A9F78F3F09F49F
:104720000895280F311D87FD3A95F9016283089598
:104730009C01FC013296285F3F4F8191861303C094
:10474000DF0111971C92E217F307B9F708950E9451
:104750007E2308950E9498230895FC01329686E0F6
:10476000DF011D928A95E9F70895DC01FB0111969E
:104770009C9111978181981322C012968C91129767
:10478000882319F0928189131AC013968C9113977C
:10479000882319F09381891312C015968C9115976F
:1047A000882319F0958189130AC014969C91992346
:1047B00021F081E02481291303C080E001C081E061
:1047C0008170089508950E94E22308958F5F809379
:1047D00081020E94E323089583E0809381020E9476
:1047E000E32308950E94E623089581E080938102E7
:1047F0000E94E32308950E94F523089508950895E3
:104800000E94FF230895089508950E94FE230895AD
:104810000E9403240E94F4100E94042480E00E945D
:104820007310982F81E0911101C080E0089585B741
:10483000806885BF85B7806885BF08951F921FB6C1
:104840001F9211248F939F93AF93BF938091820205
:10485000811113C08091A5029091A602A091A70298
:10486000B091A8024196A11DB11D8093A50290931D
:10487000A602A093A702B093A802BF91AF919F9107
:104880008F911F901FBE1F9018958091AD028430AC
:1048900031F10E94A1031092820288E190E020E4AD
:1048A0000FB6F894A895809360000FBE2093600027
:1048B00083B7817F846083BF83B7816083BF78942F
:1048C000889583B78E7F83BF0FB6F894A8958091A3
:1048D0006000886180936000109260000FBE0895B0
:1048E0000E942B070E94A603089582E084BD93E0F6
:1048F00095BD9AEF97BD80936E0008952FB7F894F9
:104900008091A5029091A602A091A702B091A80261
:104910002FBF0895A4E0B0E0E0E9F4E20C94B12CDC
:104920008FB7F8942091A5023091A6024091A7027A
:104930005091A80229833A834B835C838FBF69819E
:104940007A818B819C812496E2E00C94CD2C9C0191
:104950004FB7F8948091A5029091A602A091A7026A
:10496000B091A8024FBF821B930B089578941F92B9
:104970001FB61F9211248F939F93AF93BF93809183
:10498000A5029091A602A091A702B091A80201965B
:10499000A11DB11D8093A5029093A602A093A7022A
:1049A000B093A802BF91AF919F918F911F901FBEAE
:1049B0001F90189587E797E7909301088093000868
:1049C00088E19AE00FB6F894A895809360000FBE36
:1049D00090936000FFCF88E19AE00FB6F894A89515
:1049E000809360000FBE90936000FFCF80918B0298
:1049F0000895282FCB01BA013091AD023430E1F493
:104A00002F702093E9002FEF3091E80035FD07C0AB
:104A100035ED3A95F1F7000021502111F5CF2091A5
:104A2000E80025FF09C040E050E00E943C2780914B
:104A3000E8008E778093E8000895BC0143E050E0E1
:104A400084E00E94F9240895BC0146E050E084E02F
:104A50000E94F9240895CF93DF93D82FC92F48E0FF
:104A600050E0682F792F81E00E94F92488E0ED2F33
:104A7000FC2FA3E8B2E001900D928A95E1F7DF9157
:104A8000CF910895792F603231F440E250E0682FE1
:104A900082E00E94F92408958091AC02811109C03E
:104AA0000E9413290E9470298091E2008460809303
:104AB000E20008951092AC0208950E94F523089533
:104AC0006091A90281E0611101C080E00E94EC23A5
:104AD00008959091AD0281E0943009F080E06091FA
:104AE000A9020E94F223089542E061EC81E00E9455
:104AF0008F2842E261EC84E00E948F2842E261EC60
:104B000082E00E948F2842E260EC83E00E948F28BE
:104B10009091AD0281E0943009F080E06091A902AB
:104B20000E94E62308958091AF02893089F148F40C
:104B3000823009F4A1C0833009F45BC0813041F0B8
:104B400008958A3009F488C08B3009F46DC0089547
:104B50008091AE02813A09F04BC08091E800877FD6
:104B60008093E8008091B2029091B302892B61F0AA
:104B700060E080E090E070E00E94DA278091E80039
:104B80008B778093E800089568E083E892E0F3CFA4
:104B90008091AE02813261F58091B2029091B302B0
:104BA0008D7F892B29F58091E800877F8093E8002D
:104BB0008091E80082FF18C09091F3008091F2008C
:104BC000029731F48091F100813011F0863021F4A8
:104BD0008091F10080938B028091E8008B77809325
:104BE000E8000E94C32804C08091AD028111E0CF8B
:104BF00008958091AE02813AD9F78091B2029091E6
:104C0000B302892BA9F78091E800877F8093E800A1
:104C10008091E80080FFFCCF80912C018093F1000F
:104C20008091E8008E77DBCF8091AE02813201F770
:104C30008091B2029091B302892BD1F68091E80065
:104C4000877F8093E8000E94C3288091B002809300
:104C50002C010E942B0708958091AE02813241F60B
:104C60008091E800877F8093E8000E94C3288091AC
:104C7000B10280938C0208958091AE02813A09F0CE
:104C8000B7CF8091E800877F8093E8008091E800AB
:104C900080FFFCCF80918C02C1CF84B7877F84BF17
:104CA0000FB6F894A89580916000886180936000A9
:104CB000109260000FBE80E890E00FB6F8948093E9
:104CC0006100909361000FBE0E94FB2308950E9433
:104CD00013290E947029E2EEF0E0808184608083D5
:104CE00078940E94F32B089584E291E00E94E422DC
:104CF00008958091AD02853031F48091AD02853008
:104D000019F00E94702408950E9445248091AB02FE
:104D1000882399F30E940824882379F30E94262788
:104D20000E942B07EACFA0E2B0E0E9E9F6E20C949A
:104D3000B12C8091AD02843081F483E08093E9004E
:104D40008091E80082FF09C08091E80085FD09C0DC
:104D50008091E8008B778093E800A096E2E00C94C5
:104D6000CD2C40E050E060E270E0CE0101960E9460
:104D70008B278091E8008B778093E80060E2CE017A
:104D800001960E94911DE9CF9A014091B402509181
:104D9000B5020E94CC260895AC01CB01D901252F84
:104DA00033272330310521F168F42130310509F42E
:104DB00043C02230310509F444C080E090E020E097
:104DC00030E024C02132310551F122323105A9F7FA
:104DD0008330910590F7FC01EE0FFF1FE553FE4F66
:104DE0002081318188539E4FFC01808190E00EC06C
:104DF000CA019927413069F08230910569F0E6EBEC
:104E0000F3E0892BD1F6849190E09F012D933C93A0
:104E10000895E2EAF3E0F7CFE6E9F3E0F4CF833078
:104E2000910558F6FC01EE0FFF1FEF52FE4F208157
:104E3000318189E090E0EACF82E190E025E134E041
:104E4000E5CF8BE590E02AEB33E0E0CF80E189BD50
:104E500082E189BD09B400FEFDCF8091D8008F7D2D
:104E60008093D8008091E00082608093E000809180
:104E7000E00081FDFCCF0895AF92BF92CF92DF9208
:104E8000FF920F931F93CF93DF936C01EB018A0185
:104E90000E94E228F82E811123C00115110539F076
:104EA000F80180819181C81BD90BC80ED91EA12C95
:104EB000B12C2097A9F08091E80085FD22C0809157
:104EC000E8008E778093E80001151105A1F0F80144
:104ED000808191818A0D9B1D9183808385E0F82ECE
:104EE0008F2DDF91CF911F910F91FF90DF90CF9089
:104EF000BF90AF9008950E94E2288823E1F2F82E37
:104F0000EFCFF60181916F018093F1002197FFEFC0
:104F1000AF1ABF0ACECFAF92BF92CF92DF92FF926D
:104F20000F931F93CF93DF936C01EB018A010E94D3
:104F3000E228F82E811123C00115110539F0F8017E
:104F400080819181C81BD90BC80ED91EA12CB12C10
:104F50002097A9F08091E80085FD22C08091E800AB
:104F60008B778093E80001151105A1F0F80180818D
:104F700091818A0D9B1D9183808385E0F82E8F2D72
:104F8000DF91CF911F910F91FF90DF90CF90BF9055
:104F9000AF9008950E94E2288823E1F2F82EEFCF27
:104FA0008091F100F60181936F012197FFEFAF1A15
:104FB000BF0ACECFFC019B018091B4029091B50253
:104FC0008617970718F0672B61F0C90140E000973A
:104FD00071F441110CC08091E80082FF35C080E07F
:104FE00008958091E8008E778093E800EECF2091BD
:104FF000AD022223A9F12530A9F12091E80023FD7B
:105000002DC02091E80022FDE6CF2091E80020FF8E
:10501000DECF3091F3002091F200009719F0283094
:10502000310558F041E02830310509F040E0209189
:10503000E8002E772093E800CACF41914093F10019
:1050400001972F5F3F4FE9CF8091AD02882341F058
:10505000853041F08091E80083FFBDCF81E0089565
:1050600082E0089583E00895FC019B018091B402E1
:105070009091B5028617970718F0672B61F0C90168
:1050800040E0009771F441110CC08091E80082FF6C
:1050900036C080E008958091E8008E778093E80024
:1050A000EECF2091AD022223B1F12530B1F1209154
:1050B000E80023FD2EC02091E80022FDE6CF2091DC
:1050C000E80020FFDECF3091F3002091F20000973E
:1050D00019F02830310558F041E02830310509F049
:1050E00040E02091E8002E772093E800CACF449159
:1050F0004093F100319601972F5F3F4FE8CF8091A9
:10510000AD02882341F0853041F08091E80083FFB3
:10511000BCCF81E0089582E0089583E00895982F40
:10512000973028F08F708093E90081E00895909384
:10513000E900242F762F50E0981731F07091EC00A1
:105140002091ED005091F00021FD02C09F5FE8CF5B
:105150003091EB003E7F3093EB003091ED003D7FCE
:105160003093ED003091EB0031603093EB007093A1
:10517000EC002093ED005093F0002091EE0027FD0D
:10518000E5CF80E008958091AE0287FF13C0809143
:10519000E80082FF06C08091E8008B778093E800EA
:1051A00004C08091AD028111F2CF08958091AD02CB
:1051B0008823D9F38091E80080FFF8CF8091E80040
:1051C0008E77ECCF2091E4003091E50095E6A901BF
:1051D0008091EC008170882331F08091E80080FF9D
:1051E00006C080E008952091E80022FD1BC0809158
:1051F000AD02882391F0853091F08091EB0085FD20
:1052000010C02091E4003091E5004217530701F3EC
:1052100091509111DCCF84E0089582E0089583E0FD
:10522000089581E008950E9482290E948A29E0EE73
:10523000F0E0808181608083E8EDF0E080818F770D
:10524000808319BCA7EDB0E08C918E7F8C93808118
:105250008F7E80831092AC0208950F931F93CF939B
:10526000DF930E9482290E948A29C8EDD0E08881BC
:105270008F77888388818068888388818F7D888301
:1052800019BC1092AD021092A9021092AB021092BA
:10529000AA0200EE10E0F80180818B7F8083888174
:1052A0008160888342E060E080E00E948F28E1EE28
:1052B000F0E080818E7F8083E2EEF0E0808181608B
:1052C0008083808188608083F80180818E7F8083E5
:1052D000888180618883DF91CF911F910F9108951C
:1052E000E8EDF0E080818F7E8083E7EDF0E0808163
:1052F0008160808384E082BF81E08093AC020E9461
:105300002D290895E8EDF0E080818E7F8083109252
:10531000E20008951092DA001092E10008951F92C1
:105320000F920FB60F9211242F933F934F935F93D9
:105330006F937F938F939F93AF93BF93EF93FF935D
:105340008091E10082FF0BC08091E20082FF07C0E4
:105350008091E1008B7F8093E1000E94F22B80918D
:10536000DA0080FF19C08091D80080FF15C08091BD
:10537000DA008E7F8093DA008091D90080FF94C09C
:1053800080E189BD82E189BD09B400FEFDCF81E0E5
:105390008093AD020E944C258091E10080FF19C0EE
:1053A0008091E20080FF15C08091E2008E7F8093A3
:1053B000E2008091E20080618093E2008091D80059
:1053C00080628093D80019BC85E08093AD020E9472
:1053D00060258091E10084FF29C08091E20084FF74
:1053E00025C080E189BD82E189BD09B400FEFDCF01
:1053F0008091D8008F7D8093D8008091E1008F7ECE
:105400008093E1008091E2008F7E8093E2008091A2
:10541000E20081608093E2008091A902882309F470
:1054200049C084E08093AD020E9469258091E1002B
:1054300083FF29C08091E20083FF25C08091E100B5
:10544000877F8093E10082E08093AD021092A902F1
:105450008091E1008E7F8093E1008091E2008E7F59
:105460008093E2008091E20080618093E20042E05C
:1054700060E080E00E948F288091F0008860809337
:10548000F0000E945D25FF91EF91BF91AF919F9138
:105490008F917F916F915F914F913F912F910F90DD
:1054A0000FBE0F901F90189519BC1092AD020E946C
:1054B0005A2572CF8091E30087FF02C083E0B2CF0C
:1054C00081E0B0CF1F920F920FB60F921124FF927E
:1054D0000F931F932F933F934F935F936F937F93FC
:1054E0008F939F93AF93BF93CF93DF93EF93FF93EC
:1054F00009EE10E0F8018081C091EC00C795CC273F
:10550000C7958F70FC2EF82A1082C0EFD0E08881FA
:10551000877F888378940E94AB2AF8011082888163
:1055200088608883CF2DCF70C083FF91EF91DF918A
:10553000CF91BF91AF919F918F917F916F915F912B
:105540004F913F912F911F910F91FF900F900FBEA0
:105550000F901F901895AAE2B0E0E1EBFAE20C94EC
:10556000B02C8EEA92E0FC0101962091F10020839C
:1055700022E0863B9207B9F70E9493258091E800CC
:1055800083FF38C08091AE029091AF029A3090F5BF
:10559000E92FF0E0EA58F14D0C94632C803889F043
:1055A000823841F58091B2028F70873018F5809370
:1055B000E9008091EB0085FB882780F91092E900D3
:1055C00006C08091AA029091AB02911182609091E5
:1055D000E800977F9093E8008093F1001092F1002B
:1055E0008091E8008E7723C0811116C08091B002AF
:1055F000813011F18091E80083FF0AC08091E800BA
:10560000877F8093E8008091EB0080628093EB00BD
:10561000AA96E3E00C94CC2C823061F78091B00222
:10562000882389F01092E9008091E800877F8093B9
:10563000E8000E94C328DECF81E0933009F080E0CB
:105640008093AB02EFCF8091B2028F702FEF280FC3
:10565000263080F68093E9002091EB0020FFE2CF16
:10566000933031F48091EB0080628093EB00DACFCD
:105670009091EB0090619093EB0021E030E0A90164
:1056800002C0440F551F8A95E2F74093EA0010923A
:10569000EA008091EB008860E8CF8111ABCF1091D8
:1056A000B0021F778091E3008078812B8093E30024
:1056B0008091E800877F8093E8000E94C328809152
:1056C000E80080FFFCCF8091E30080688093E300D6
:1056D00083E0111101C082E08093AD028BCF80582E
:1056E000823008F087CF8091B0029091B1028C3D5A
:1056F00053E0950799F583E08A838AE289834FB75F
:10570000F894DE01139620E03EE051E2E32FF0E052
:1057100050935700849120FF03C082958F703F5FA4
:105720008F708A30C8F0895C90E08D939D932F5FD5
:10573000243161F74FBF8091E800877F8093E800B4
:105740006AE270E0CE0101960E94DA278091E800BB
:105750008B778093E8004ECF805DE6CF6091B202F8
:105760007091B302AE014F5F5F4F0E94C426BC012F
:10577000892B09F43FCF8091E800877F8093E80070
:1057800089819A810E943428E1CF803809F032CF94
:105790008091E800877F8093E8008091A902809340
:1057A000F1001ECF811126CF9091B002923008F007
:1057B00021CF8091E800877F8093E8009093A90231
:1057C0000E94C3288091A902882331F084E080934D
:1057D000AD020E9474250ECF8091E30087FDF6CFC5
:1057E00081E0F5CF0895CF938091AD02882399F0A1
:1057F0008091E900C091EC00C795CC27C7958F70C8
:10580000C82B1092E9008091E80083FD0E94AB2A2A
:10581000CF70C093E900CF910895991B79E004C03F
:10582000991F961708F0961B881F7A95C9F78095DF
:105830000895AA1BBB1B51E107C0AA1FBB1FA617D7
:10584000B70710F0A61BB70B881F991F5A95A9F729
:1058500080959095BC01CD01089597FB072E16F415
:10586000009407D077FD09D00E94192C07FC05D0C1
:105870003EF4909581959F4F0895709561957F4F67
:105880000895A1E21A2EAA1BBB1BFD010DC0AA1F81
:10589000BB1FEE1FFF1FA217B307E407F50720F099
:1058A000A21BB30BE40BF50B661F771F881F991F14
:1058B0001A9469F760957095809590959B01AC015D
:1058C000BD01CF010895EE0FFF1F0590F491E02D6B
:1058D00009946927962769277827872778270895C5
:1058E0000E94782C332312F48A1B9B0B0C94892C76
:1058F000A29FB001B39FC001A39F700D811D112411
:10590000911DB29F700D811D1124911D08950E945B
:10591000782CB7FF0895821B930B08950E94782C72
:10592000A59F900DB49F900DA49F800D911D1124F3
:105930000895B7FF0C948E2C0E948E2C821B930B23
:1059400008952F923F924F925F926F927F928F9223
:105950009F92AF92BF92CF92DF92EF92FF920F93FE
:105960001F93CF93DF93CDB7DEB7CA1BDB0B0FB608
:10597000F894DEBF0FBECDBF09942A8839884888C5
:105980005F846E847D848C849B84AA84B984C8845B
:10599000DF80EE80FD800C811B81AA81B981CE0F52
:1059A000D11D0FB6F894DEBF0FBECDBFED01089537
:1059B000002E083090F0982F872F762F652F542FC8
:1059C000432F322F22270850F4CF220F331F441FBA
:1059D000551F661F771F881F991F0A95B2F7002D64
:1059E000089597FD1094002E083098F00850232F4A
:1059F000342F452F562F672F782F892F912DF4CFD5
:105A00001594979587957795679557954795379509
:105A100027950A95AAF71124002D08958F929F9239
:105A2000AF92BF92CF92DF92EF92FF92CF93DF932C
:105A3000EC01688179818A819B81611571058105FD
:105A4000910521F464E279ED8BE597E02DE133EFE8
:105A500041E050E00E94E52D49015A019B01AC0153
:105A6000A7EAB1E40E948E2C6B017C01ACEEB4EF8E
:105A7000A50194010E949C2CDC01CB018C0D9D1D85
:105A8000AE1DBF1DB7FF03C00197A109B0488883B1
:105A90009983AA83BB839F77DF91CF91FF90EF908B
:105AA000DF90CF90BF90AF909F908F9008950E940D
:105AB0000E2D089580E091E00E940E2D0895B0E033
:105AC000A0E08093000190930101A0930201B093A4
:105AD00003010895FC014150504030F0019006163A
