:100000000C9482020C949F020C949F020C949F0209
:100010000C949F020C949F020C949F020C949F02DC
:100020000C949F020C949F020C9473280C94472903
:100030000C94B9220C949F020C949F020C949F0282
:100040000C949F020C949F020C949F020C949F02AC
:100050000C949F020C9440230C949F020C949F02DA
:100060000C949F020C949F020C949F020C949F028C
:100070000C949F020C949F020C949F020C949F027C
:100080000C949F020C949F020C949F020C949F026C
:100090000C949F020C949F020C949F020C949F025C
:1000A0000C949F020C949F020C949F020400060083
:1000B0000500070004000600050007000400060014
:1000C0000500070004000600050007001E0F0500DC
:1000D000047F3F1F643214643214783C1E1E140ADD
:1000E000052223252628292A2C2D2F303233353678
:1000F000383A3B3D3E4042434547494A4C4E5051B9
:10010000535557595A5C5E6062646668696B6D6FDF
:1001100071737577797B7D7F81838587898A8C8EE2
:1001200090929496989A9C9E9FA1A3A5A7A8AAACEA
:10013000AEAFB1B3B4B6B8B9BBBCBEBFC1C2C3C524
:10014000C6C7C9CACBCCCDCED0D1D2D2D3D4D5D6C6
:10015000D7D7D8D9D9DADADBDBDBDCDCDCDCDCDDF9
:10016000DDDDDDDCDCDCDCDCDBDBDBDADAD9D9D8DD
:10017000D7D7D6D5D4D3D2D2D1D0CECDCCCBCAC975
:10018000C7C6C5C3C2C1BFBEBCBBB9B8B6B4B3B1A4
:10019000AFAEACAAA8A7A5A3A19F9E9C9A9896943F
:1001A00092908E8C8A89878583817F7D7B79777514
:1001B00073716F6D6B6968666462605E5C5A5957F3
:1001C000555351504E4C4A4947454342403E3D3BB2
:1001D0003A3836353332302F2D2C2A29282625233C
:1001E00022FFAA7F55400001010101010101010127
:1001F00002020202020202020203030303030303D8
:1002000003040404040404040505050505060606A4
:100210000606070707070708080808090909090A61
:100220000A0A0B0B0B0C0C0C0D0D0D0E0E0E0F0F06
:100230000F10101111111212131314141515161694
:100240001717181819191A1A1B1B1C1D1D1E1E1F03
:100250002020212222232424252626272829292A52
:100260002B2C2D2D2E2F303132323334353637387A
:10027000393A3B3C3D3E3F40414243444546474876
:10028000494A4C4D4E4F50515354555658595A5B4C
:100290005D5E5F616264656668696B6C6D6F7072EC
:1002A000737577787A7B7D7E8082838587888A8C58
:1002B0008E8F91939596989A9C9EA0A2A3A5A7A98C
:1002C000ABADAFB1B3B5B7BABCBEC0C2C4C6C9CB83
:1002D000CDCFD1D4D6D8DBDDDFE2E4E7E9EBEEF039
:1002E000F3F5F8FAFDFF00000000000000002A2BE3
:1002F00028000000000000000000000000000000D6
:100300000029000000002C1E34202122243426273E
:10031000252E362D3738271E1F202122232425265F
:100320003333362E37381F0405060708090A0B0C2D
:100330000D0E0F101112131415161718191A1B1C75
:100340001D2F3130232D350405060708090A0B0C33
:100350000D0E0F101112131415161718191A1B1C55
:100360001D2F3130354C000000000000000000005F
:10037000000000000000000000000000000000007D
:10038000000000000000000000007E0F00D4FFFF0E
:10039000FFC7000000780A0374006B00730034008C
:1003A000000012036B0075007300680069006D00A7
:1003B0006100380000000403090409025B00030126
:1003C00000A0FA0904000001030101000921110144
:1003D0000001224000070581030800010904010013
:1003E000020300000009211101000122220007057B
:1003F0008203200001070503032000010904020015
:100400000103000000092111010001227B00070502
:100410008403200001120100020000000838393472
:10042000300100010200010660FF0961A1010962BB
:10043000150026FF00952075088102096315002626
:10044000FF00952075089102C005010902A10185F0
:10045000020901A1000509190129081500250195C6
:1004600008750181020501093009311581257F9543
:10047000027508810609381581257F950175088167
:1004800006050C0A38021581257F9501750881063D
:10049000C0C005010980A101850319012AB7001513
:1004A0000126B700950175108100C0050C0901A156
:1004B00001850419012AA002150126A002950175E3
:1004C000108100C005010906A101050719E029E70F
:1004D00015002501950875018102950175088101B6
:1004E0000507190029FF150026FF009506750881EC
:1004F00000050819012905950575019102950175F9
:10050000039101C011241FBECFEFDAE0DEBFCDBFE3
:1005100011E0A0E0B1E0E4E9F9E502C005900D9238
:10052000AE3CB107D9F722E0AEECB1E001C01D92BC
:10053000A23AB207E1F70E94C1100C949F2C0C94D0
:10054000000084E0089581E0089581E008950E940C
:10055000A502089508950E94AA020895A5E0B0E0BA
:10056000E4EBF2E00C94912B49835A833091D5014E
:1005700089819A81311119C0662399F0222389F06B
:100580000E944408182F682F89819A810E942908A7
:1005900069817A81812F0E9426202596E3E00C94C0
:1005A000AD2B0E943608182FF3CF0E9444086981B2
:1005B0007A81F1CFFC01262F4081518162817381C4
:1005C00084810E94AE02089581E00895CF93DF9365
:1005D000EC0160E00E94DA02BE010E94AB02DF91F2
:1005E000CF910895E1E0F0E0DF0102C0AA0FBB1F48
:1005F0006A95E2F7BD01DF0102C0AA0FBB1F4A9551
:10060000E2F76A2B01C0EE0F2A95EAF7962F98239E
:10061000961302C08E2B0895E0958E230895242F03
:10062000462F682F8091D9010E94F2020E9489070B
:1006300008950E94CA0F08950E94CE0F089508954C
:100640000E941B070E941F032FEF84E39CE02150B0
:1006500080409040E1F700C0000008950E94200310
:100660000E94642308950E9420030E947523089528
:100670000F931F93CF93DF938C0161E00E94DA0206
:10068000EC01B8010E94DF1B811106C080E0DF9100
:10069000CF911F910F910895B801CE010E94A7023A
:1006A0008823A1F3B801CE010E946C21882371F345
:1006B000B801CE010E942E1D882341F3B801CE015E
:1006C0000E94DE20882311F3B801CE010E94841A13
:1006D0008823E1F2F8018281882361F0CA35FDE5C3
:1006E000DF0701F158F4C115ECE5DE0791F0CE3DCE
:1006F000DC4591F0C8010E94A302C9CFCC358DE53D
:10070000D80769F090F0C73ADD45A1F70E9433039E
:10071000BDCF0E942E03BACF0E94FD0CF7CF0E94DE
:10072000370CE8CF0E94410CE5CF0E94450CE2CF88
:100730000E949B220E94B50308950E94B9030E9463
:10074000A022089508950E94A203089581E00895CB
:100750000E94A60308950895CF93C82F0E94A30373
:100760008C2F0E94A803CF91089580E00E94AC03D3
:1007700008950E94C8210E94AC030895CF930E945F
:10078000C821C82F8091D0018C1779F0C093D00177
:100790000E9425236093D1017093D2018093D301ED
:1007A0009093D4018C2F0E94AC03CF910895ABE0BD
:1007B000B0E0EDEDF3E00C94922B4F8358876987FE
:1007C0007A878B8761110E94820B1E821D8285E0D1
:1007D000FE013796DE01119601900D928A95E1F7A0
:1007E0008C819D81892B61F449815A816B817C8147
:1007F0008D819E810E94AB0A2B96E2E00C94AE2B79
:1008000089819A8189238F3F79F3CE0101960E94D5
:10081000E4028111E9CFF0CFFC01808191810E9437
:1008200071080895CF93C82F8823B9F08CEF8C0FEF
:10083000813AA8F46C2F80910401909105010E94E7
:100840002C22882329F08C2F0E94420B0E94A30B9C
:100850008C2F0E943A0B0E94A30BCF91089580E247
:100860008C0F883048F4C77081E001C0880FCA95AA
:10087000EAF70E94650BEFCFEBE5EC0FE33040F4B5
:10088000F0E0E45AFE4F808190E00E94EE21E5CF37
:10089000E8E5EC0FE73150F4F0E0EE0FFF1FE25D0A
:1008A000FE4F808191810E940422D7CFC03FA8F2E1
:1008B0008C2F0E9445110E941812CFCF882379F106
:1008C0009CEF980F913A28F40E94420B0E94A30BD0
:1008D000089590E2980F983050F4877091E001C02D
:1008E000990F8A95EAF7892F0E946B0BEFCF9BE552
:1008F000980F933028F490E080E00E94EE21089554
:1009000098E5980F973128F490E080E00E94042247
:100910000895803F20F00E949F110E9418120895B0
:100920001F93CF93DF93182FEB010E94120420979F
:1009300039F4812F0E945E04DF91CF911F910895B9
:100940008FE99FE00197F1F700C000002197EFCFFA
:1009500065E070E0893311F460E570E00E94900476
:100960000895882321F00E94650B0E94A30B08952F
:10097000882321F00E946B0B0E94A30B0895B0E026
:10098000A0E0E5ECF4E00C948B2B6C01D62FC72F84
:10099000FC011281F580F2949FE0F9220E945B0B2A
:1009A000E82E8823B9F0E12E1123A1F08C2F807F4F
:1009B000803421F080E28D0F8830D0F080917D026C
:1009C00082FF16C082E00E94060C0E945B0B91E041
:1009D000E82EE926BC2EB2948FE0B822FBE0FB158E
:1009E00008F468C0EB2DF0E0EF55F34D0C94442B68
:1009F000E12CF0CF0C2F0F70C07F11F00295007F1B
:100A0000112399F0002359F080E28D0F883010F007
:100A1000D11107C0802F0E94650B0E94A30B8D2F60
:100A200041C0802F0E94750BF8CF8D2F0E945E046D
:100A3000002309F43FC080E28D0F883010F0D111FF
:100A400004C0802F0E946B0B03C0802F0E947B0B81
:100A50000E94A30B2FC00C2F0F70C07FC03211F06B
:100A60000295007FDD2381F0D13009F465C01123A8
:100A700009F46FC0FF2009F465C0F601858180FF8D
:100A8000CECF8F7085835EC080917D0282FD34C0A1
:100A9000112359F0002329F0802F0E94650B0E943A
:100AA000A30B80E00E94120405C080E00E945E0457
:100AB0000111C7CF2B2D2850330B2430310520F4E2
:100AC0000E94C8210E94AC03EE2089F00E94570BBF
:100AD00080FD0DC0F60112820E94510B0E949D07FD
:100AE000C6010E94DB060E94510B0E94A907CDB7E8
:100AF000DEB7E9E00C94A72B112389F0F11006C0B2
:100B00000E94850B802B0E94B104D4CF21E0F21209
:100B1000F7CF0E94850B802B0E948C0BCBCFF1105E
:100B200006C00E94990B802F0E94B804C3CF31E009
:100B3000F31609F4BFCFF5CF112331F085E08F15FF
:100B400008F4B8CF802FDFCF94E09F1508F4B2CF20
:100B5000EACFFF2041F3D93369F4FFEF27EE33E00A
:100B6000F15020403040E1F700C000008D2F0E947E
:100B70005E04A0CF8FE19EE40197F1F7F5CF8C2FB3
:100B800086958695837069F0813009F093CF8D2F1B
:100B90009C2F9370111102C090E080E00E9404220B
:100BA00089CF8D2F9C2F9370111102C090E080E0AF
:100BB0000E94EE217FCF8D2F112329F00E94451135
:100BC0000E94181277CF0E949F11FACF8C2F83704A
:100BD00079F511116FCF4D2F429546954770440F0F
:100BE000440F8D2F8F70042E01C0880F0A94EAF7EE
:100BF0002D2F2071D4FF07C02FE030E001C0220F5D
:100C00004A95EAF72095C695C695C370822BC230E7
:100C100049F058F4C13019F00E9477074BCF0E9479
:100C2000710748CF0E947D0745CF0E946E0742CFD3
:100C30008695112311F08C2F8170882309F43ACF07
:100C40004D2F429546954770440F440F8D2F8F705E
:100C5000042E01C0880F0A94EAF72D2F2071D4FFCB
:100C600007C02FE030E001C0220F4A95EAF7209537
:100C7000C695C695C370822BC23049F058F4C13076
:100C800019F00E94C80716CF0E94C20713CF0E9416
:100C9000CE0710CF0E9489070DCFCF70112329F006
:100CA0008C2F0E949D078D2F2ECF8D2F0E94B80470
:100CB0008C2F0E94A907FECED23F51F160F4D03FA5
:100CC000B9F0D13F81F0112309F449C0F110A7CE4A
:100CD0008C2F8F7121C0D33F11F1D43FA1F78091A8
:100CE0007D0282FD26C08C2F8F71112311F314C059
:100CF000112349F094E09F1508F4DCCE8C2F8F71FE
:100D00000E94B607D7CEE5E0EF1508F4D3CEF6CFB4
:100D10008C2F8F711111CDCF0E949D07CBCE112347
:100D200029F08C2F8F710E949407C4CE0E949007E7
:100D3000C1CE112349F0CF718C2F0E949D0763E033
:100D40008C2F0E94E80BB6CE81E00E94060CF1E0E9
:100D5000FF1508F0AFCE82E00E94060CABCEFF205C
:100D600079F0D93341F42FEF37EE83E02150304052
:100D70008040E1F7F9CEEFE1FEE43197F1F7F4CEF0
:100D80008C2F8F7196CF0F931F93CF93DF93EC012E
:100D9000688179818A810E947C088C010E94D40735
:100DA0000E946D07B801CE010E94BF04DF91CF9170
:100DB0001F910F910895CF93DF93EC018B819C815C
:100DC000892B29F08881998189238F3F51F4DF9104
:100DD000CF910895CE010E94C306CE010E94E60283
:100DE000F6CFCE010E9438038111F4CF0E945B0B35
:100DF000882369F38A81882351F380917D0282FFE1
:100E0000E6CF82E00E94060CE2CF90E080E00E94F4
:100E1000EE2190E080E00E9404220E94820B0E945A
:100E2000A30B0E9434120E94181208950E944A0BCC
:100E30000E94050708950E94720B0E9416070895EC
:100E400092959F70963091F058F4925F9F70923017
:100E500058F4803F19F030F4883E30F481E0089572
:100E60009A5FF4CF843FD1F380E00895883EB0F3D9
:100E7000813FD1F7F3CFFC0183819481892B29F045
:100E80008081918189238F3F11F480E008958081D2
:100E900091810E9471080E9420070895A5E0B0E0AA
:100EA000E4E5F7E00C94922B2596E2E00C94AE2B4F
:100EB000A6E0B0E0EEE5F7E00C94922B2696E2E097
:100EC0000C94AE2B08950E94620708950E94630758
:100ED0008093DA010E940507089508950E9466072D
:100EE00008959091DA01892B0E94660708959091E8
:100EF000DA0189230E94660708959091DA01892713
:100F00000E94660708950E94620708950E94830761
:100F100008950E9486078093D9010E9405070895CD
:100F200080E00E948907089591E001C0990F8A9599
:100F3000EAF7892F0E948907089521E030E001C077
:100F4000220F8A95EAF78091D901822B0E948907A6
:100F5000089521E030E001C0220F8A95EAF720953C
:100F60008091D90182230E948907089521E030E011
:100F700001C0220F8A95EAF78091D90182270E9449
:100F8000890708959091D901892B0E9489070895B6
:100F90009091D90189230E94890708959091D901E0
:100FA00089270E94890708950895262F277091E0C8
:100FB00001C0990F2A95EAF723E0769567952A955F
:100FC000E1F7FB01EE0FFF1FE60FF71FE40FF51F20
:100FD00050E040E0682F70E08191DF0111979B01A4
:100FE000042E02C0369527950A94E2F721702195C8
:100FF0002827292328272C934F5F5F4F4330510523
:1010000059F70895A82FA77023E0969587952A95FC
:10101000E1F7FC01EE0FFF1FE80FF91FE60FF71FC6
:1010200050E040E080E0219130E00A2E02C0369589
:1010300027950A94E2F721703327042E01C0220F6E
:101040000A94EAF7822B4F5F5F4F4330510559F7FF
:101050000895262F911109C0843038F4682F70E06C
:1010600046ED51E0822F0E94D507089591110AC0E4
:10107000843030F466ED71E090E00E940208982F11
:10108000892F089590E0FCCFCF92DF92FF920F93CB
:101090001F93CF93DF936C010091D9018091DA0106
:1010A000082BC7E0D0E010E0FC2EC8010C2E02C0D7
:1010B000959587950A94E2F780FD0CC02197A0F7DB
:1010C000F12C8F2DDF91CF911F910F91FF90DF9029
:1010D000CF900895B6018C2F0E94A80E019771F34E
:1010E000F0CFCF93DF93EC010E944408BE010E9431
:1010F000A80EDF91CF9108951F93CF93DF93EB015B
:101100009091D501992339F0CB010E947108DF91AC
:10111000CF911F910895882369F0CB010E94440864
:10112000182F682FCE010E942908BE01812F0E942E
:10113000A80EEDCFCB010E943608182FF6CF1F93D3
:10114000CF93DF93C091DB0116E08091DC018C131B
:1011500004C0DF91CF911F910895D0E01C9FF00152
:101160001D9FF00D1124E352FE4F40815181628199
:101170007381848195810E9458072196C770E5CFBD
:1011800040910D0250910E0260910F027091100279
:1011900080911102909112020E94580708951F93A6
:1011A000CF93DF9380911202807F09F049C0809134
:1011B0000F02882309F444C08091DB01C091DC0157
:1011C00060910D0270910E02A0911002B091110277
:1011D000D62FD72316E0C81799F190E0109711F099
:1011E000DF3F19F401968770F6CF189F9001199F81
:1011F000300D1124F901E352FE4F41814713F2CF24
:1012000040814613EFCF42814111ECCF438154819D
:101210004A1B5B0B483C510528F7809112028F70E6
:10122000806180931202F901EE51FE4F80818F7030
:10123000806180838DE092E00E94DB060E949F081F
:10124000DF91CF911F910895A1E1B0E0EAE2F9E0CA
:101250000C948A2B8C0185E0F801DE011D9601902B
:101260000D928A95E1F7F801E2808DE0C82E82E0C8
:10127000D82E60911002709111026115710509F468
:101280004EC190910D0220910E02892F82238F3F33
:1012900009F445C140815181A380B480F0900F02D0
:1012A000F501E61BF70BFF2009F4EAC0809112025A
:1012B000382F307FE83CF10508F0A3C031116DC034
:1012C000FE2C251316C0941314C0E11012C08F70A9
:1012D0008061809312020E94C008C6010E94DB0652
:1012E00080911202F80185838F2D6196EAE00C94BB
:1012F000A62BA114B10429F0842F85238F3F09F078
:1013000027C180E0F82FF170DF2E80FF3CC0809174
:10131000DB012091DC0136E0821315C04D875E872A
:101320008D859E850E947108292F22952F7022306D
:10133000F0F0243018F59F70F1F0F8019581907F5E
:10134000D1F4D12C1EC090E0389FF001399FF00DF0
:101350001124E352FE4F6181651306C0608164135E
:1013600003C06281E6120FC001968770D5CF9F70CF
:1013700011F0882331F3805E883018F3C8010E9491
:10138000DB06FD2CB1CFEE2009F4AECF8091120226
:10139000816080931202F12CA7CF251306C094130D
:1013A00004C0F801EE2009F487C0C8010E943B0781
:1013B000882319F1EE2009F180911202803270F039
:1013C00020910D0230910E0238872F831986BB863B
:1013D000AA868C87CE0107960E94DB0686E0F8017C
:1013E000ADE0B2E001900D928A95E1F70E94CF083E
:1013F0000E94C008FF24F39477CFC8010E94DB0647
:10140000F9CF311113C07A2DB98AA88A6E2D898936
:101410000E944E078DE092E00E94DB0686E0F60116
:1014200011928A95E9F70E94C008B5CF25130FC025
:1014300094130DC0E1100BC0F8018583C8010E9410
:10144000DB0686E0F60111928A95E9F74DCFC801D7
:101450000E943B07882389F2EE2079F280911202E4
:10146000803208F4BBCF20910D0230910E023A83F6
:1014700029831B82BD82AC828E83CE010196ACCFC4
:10148000E83CF10508F03EC0FE2CEE2009F4B5CF93
:1014900025132AC0941328C08091120280FD1BC01E
:1014A000982F907FC1F0F8018583903F31F0982FFD
:1014B000907F905F8F70892B8583C8010E94DB0627
:1014C00086E0F801ADE0B2E001900D928A95E1F777
:1014D0000E94C00809CF86E0F801ADE0B2E00190BB
:1014E0000D928A95E1F700CFC8010E943B07811158
:1014F00075CF80911202816080931202C8010E9410
:10150000DB06F2CE7A2DB98AA88A6E2D89890E94CF
:101510004E0786E0F60111928A95E9F7D9CFEE20C1
:1015200009F46BCFC8010E943B07F82E882309F409
:1015300064CF86E0F801ADE0B2E001900D928A95AB
:10154000E1F78DE092E00E940C040E94CF08C0CF2A
:1015500081E08E25D7CEACE0B0E0E1EBFAE00C9470
:10156000912B4F83588769877A878B879C87CE0119
:1015700007960E942409882369F08A859B85892B18
:1015800039F04F815885842F85238F3F09F06BC038
:1015900016E05FC086E0FE013796DE0111960190ED
:1015A0000D928A95E1F78A859B85892B89F38F8136
:1015B000988589238F3F61F32091DC0130E0C901D8
:1015C0000196877099274091DB014817190671F43D
:1015D0000E941B071092DC011092DB0186E0EDE017
:1015E000F2E0DF011D928A95E9F7D2CF96E0929F53
:1015F000D001939FB00D1124A352BE4FFE0131962E
:1016000001900D929A95E1F78093DC010E949F086A
:10161000BFCF819FC001112483529E4F0E94240995
:101620008823E9F0E091DB011E9FF0011124E352D1
:10163000FE4F4081518162817381848195810E9436
:1016400058078091DB0190E001968770992780937D
:10165000DB018091DB019091DC018913DACF2C96BC
:10166000E3E00C94AD2B69857A858B859C850E947F
:1016700058078ECF682F80910401909105010E9438
:1016800062220895682F80910401909105010E94C3
:101690006522089580910401909105010E946822BD
:1016A000089580911B028595859585950895809173
:1016B0001B028770089590911B02977081E009F4D6
:1016C00080E0089580912602089590912602892B4A
:1016D00080932602089580959091260298239093F6
:1016E0002602089510922602089590912502892BD2
:1016F00080932502089580959091250298239093D8
:101700002502089510922502089580911C020895E3
:1017100008950E94880B089590917D0292FF08C061
:1017200090911C02981721F080931C020E94890B53
:10173000089580911C02882329F010921C0280E0F9
:101740000E94890B0895CF93DF93E0910401F091FB
:101750000501809126028083E0910401F09105014A
:10176000808190912502892B808390911C0299237E
:1017700081F0E0910401F09105018081892B808343
:1017800080910401909105010E941A2281110E940A
:10179000990BC0910401D091050148E050E063E14C
:1017A00072E0CE010E94222C892B59F088E0FE01C4
:1017B000A3E1B2E001900D928A95E1F7CE010E947B
:1017C000D521DF91CF91089508950E94E40B0895EB
:1017D00090917D0292FF11C098E0899F90011124A1
:1017E000622B60931B020E949D0780911B028595CE
:1017F000859585950E94E50B08950E949D070895A3
:1018000010921B0280E00E94E50B089590911B024C
:101810008095892380931B02282F277091F4282F0D
:10182000082E000C330B9217130659F090917D028D
:1018300092FF07C08595859585950E94A9070E940E
:10184000000C089590917D0292FB222720F9281721
:1018500069F080FB92F990937D0280917C029091D7
:101860007D020E94740C82E00E94060C0895809113
:101870007D0282FB882780F991E089270E94220C53
:10188000089581E00E94220C089580E00E94220CBD
:1018900008956FEF7FEF90E080E00E946A2C08953A
:1018A00090E080E00E94462C883E9E4F19F40E94F2
:1018B0007A1B089580E0089582E090E00E94382C21
:1018C000089583E090E00E94382C0895CF9384E03F
:1018D00090E00E94382CC82F82E290E00E94382CC1
:1018E000982F8C2FCF910895CF93C92F682F84E024
:1018F00090E00E944C2C6C2F82E290E00E944C2CD5
:10190000CF910895AB01BC018FE090E00E945E2C66
:101910000895AB01BC0183E190E00E945E2C089524
:1019200060E070E0CB010E94890C089560E070E0F7
:10193000CB010E94820C0E94900C089568EE7EEF0D
:1019400090E080E00E946A2C60E082E090E00E94DB
:101950004C2C60E083E090E00E944C2C1092DA0165
:1019600060E084E090E00E944C2C64E082E290E031
:101970000E944C2C60E085E090E00E944C2C60E0DE
:1019800086E090E00E944C2C6FEF87E090E00E9490
:101990004C2C40E050E0BA0188E090E00E945E2CC0
:1019A00060E08DE090E00E944C2C40E050E0BA01F5
:1019B00088E190E00E945E2C60E087E190E00E9468
:1019C0004C2C40E050E0BA018CE190E00E945E2C8B
:1019D00070E060E080E290E00E946A2C40E050E01D
:1019E000BA0188E190E00E945E2C80E00E94931B87
:1019F0000E94C21B0E94960C08950E949E0C08959E
:101A0000682F8EE090E00E944C2C08950E942523C0
:101A100060932E0270932F028093300290933102D4
:101A200060932A0270932B0280932C0290932D02D4
:101A30000895089508950E941A0D089508950E942A
:101A40001E0D089582E99FE00E94BE210E94190D9B
:101A50000E941B0D089581E008950E942B0D0895AA
:101A6000089508950E94300D0E94310D08950E943E
:101A7000AE0F0E94AB0308950E9410230E94D21B58
:101A80000E9444100E94370D0E948F190E941F0D62
:101A90000895AAE0B0E0EFE4FDE00C948D2B0E94E5
:101AA00050101091290280E00E94D10F181328C015
:101AB0000E9419238C018091270290912802081717
:101AC0001907A1F08FEF89838A831B820E94192353
:101AD0008160782F9D838C8349815A816B818D81B0
:101AE0000E94D70310932802009327020E94CB196B
:101AF0000E9456120E94BE032A96E7E00C94A92B7E
:101B00008091320281FD0E94D70F0E942D0DD82EA8
:101B100080E00E94D10F182F80912902181721F11F
:101B2000E12EE82600E0FF24F3948E2D8F21B1F002
:101B3000DD20A1F00E831F8291E0812F8F2109F417
:101B400090E098870E9419238160782F9A8789876F
:101B50004E815F8168858A850E94D7030F5FFF0CE5
:101B6000043019F7109329020E94060DBFCFCF93BE
:101B7000DF930E94AD0EEC01811521E5920708F07C
:101B800042C0811530E5930708F09FC0883E91055B
:101B900030F5803E910508F094C0883A910588F4AC
:101BA000853A910508F086C08130910509F489C015
:101BB000009709F486C0049708F083C0D0E0C0E025
:101BC00080C08F3B9105D0F7C85AD0E0CC0FDD1F05
:101BD000C15ADE4F0990D881C02DD46472C08115DE
:101BE00040E2940750F4C11581E0D80708F069C0BD
:101BF000C03FD10518F3D06564C081159044F0F260
:101C0000DF70D06A5EC0811535E5930718F5811540
:101C100044E5940708F085C0C11583E5D80708F0AE
:101C20006CC0C11522E5D20708F462C0CE018370F2
:101C3000992721E030E002C0220F331F8A95E2F796
:101C4000C695C69580E2C89FE0011124C22BD32B14
:101C5000DC6837C0811539E59307A8F4811548E59C
:101C6000940708F063C0C11586E5D80708F0A6CF31
:101C70008C2F0E944F0FC82FD0E0DC2FCC27CC2711
:101C8000DF71D0621EC081152AE5920708F453C0A7
:101C900090568115904208F091CF8D2F8F710E9440
:101CA0004F0F90E0982F882788279F719C012C2B3D
:101CB000E901E7CFC55AD0E0C357DE4FC881D0E075
:101CC000D064CE01DF91CF9108958370992721E0F0
:101CD00030E002C0220F331F8A95E2F7C695C69501
:101CE00040E2C49FE0011124C22BD32BDD68E9CF71
:101CF000DC2FCC27C16FD06AE4CFCE018370992747
:101D000021E030E002C0220F331F8A95E2F7C6952A
:101D1000C69540E2C49FE0011124C22BD32BDA68A0
:101D2000D0CFD82FCC27C46FD06ACBCFD82FCC2719
:101D3000C06FD06AC6CF8F700E944F0F34E0D69527
:101D4000C7953A95E1F7CF709C2FEC01D069B9CFD8
:101D50000E9426200E94B70D089582389105B9F19E
:101D6000B0F48133910509F47DC048F489329105BE
:101D700009F46DC08A32910509F47BC0089585335A
:101D8000910509F45FC08933910509F10895833EF7
:101D90009105D9F138F4803E910529F1823E9105F3
:101DA00079F10895863E9105D9F1873E910509F4B0
:101DB0003EC0843E910541F520917D0221FF24C063
:101DC00080917C0284FD19C087EE90E008952091F7
:101DD0007C02237009F05AC020917D0223FF14C0B9
:101DE00089E290E0089520917C0220FD38C0309176
:101DF0007D0230FF09C024FF43C090E080E00895D9
:101E000020917C0222FDF7CF089520917C0222FDD3
:101E10003AC030917D0230FD39C024FFF5CFEDCFBF
:101E200020917C0223FFF0CF24FDE7CFCDCF20917E
:101E30007C0223FD2EC030917D0231FFEECF84EE77
:101E400090E0089520917C0225FFDECFC9CF20913C
:101E50007C0225FD21C020917D0223FFD5CF89E39F
:101E600090E0D2CF20917C0226FFCECF8AE290E094
:101E7000089520917C0226FFC7CF81E390E008956A
:101E800083EE90E0089582EE90E0089580EE90E079
:101E9000089586EE90E0089585E390E0089590918E
:101EA0007C0292FF06C0282F28712830F9F4877F22
:101EB000846093FF06C0282F28712831F1F4877EB3
:101EC000846120917D0220FF06C0382F38713830A0
:101ED000D9F4877F816021FF06C0282F287128311F
:101EE000D1F4877E816194FD877E0895282F247127
:101EF0002430F9F68B7F8860DCCF282F24712431C1
:101F000001F78B7E8861DDCF382F3171313019F7C1
:101F10008E7F8860E0CF282F2171213121F78E7EBE
:101F20008861E1CF80E008950E94490C08950E94E5
:101F300050108FE39CE90197F1F700C000000E9468
:101F4000501080E00E94D10F80FF04C00E94940FC7
:101F50000E94642308950E94970F08950E94500CD8
:101F6000811102C00E94FD0C0E945C0C8093320221
:101F70000E94660C90937D0280937C020E94AB0FBE
:101F80000E94610C0E946E078091D9010E94860711
:101F9000089508950E94C90F089508950E94CD0FD5
:101FA0000895E82FF0E0E158FD4F808108950895ED
:101FB00080EA8A95F1F7089500C008950E94D80F2D
:101FC0000895F894E82FE295EF70F0E031A1282F02
:101FD0002F7081E090E001C0880F2A95EAF7982FD2
:101FE0009095932391A392A1892B82A3789408952D
:101FF00084E90E94E10F85E30E94E10F84EF0E94D3
:10200000E10F85EF0E94E10F86E30E94E10F089542
:102010000F931F93CF93DF938C01C62FF894549A9C
:102020005C9878940E94DC0FE0E9F1E081E0D0E078
:1020300091919F3F79F0A92FA295AF70B0E0909653
:102040002C9130E09F7002C0359527959A95E2F764
:10205000982F20FD90E0D92B880F91E0E439F90703
:1020600039F784E90E94E10F61E0D11101C060E01D
:102070008C2F0E94DE0FF801EC0FF11DD083DF9151
:10208000CF911F910F9108950E94F80F10927F0237
:1020900010927E0281E00E9475100E94190308953B
:1020A000A1E0B0E0E6E5F0E10C94912B198260E04C
:1020B000CE0101960E94081090917E02898121E054
:1020C000981301C020E0981380937E0241E06FE7EF
:1020D00072E08EE792E00E947610182F0E941C0397
:1020E000812F2196E3E00C94AD2B0895CF92DF92DF
:1020F000EF92FF920F931F93CF936C017B01042FFC
:10210000222349F081E0809335020E9419239093A5
:10211000340280933302C0913502C1110AC0C0E07D
:102120008C2FCF911F910F91FF90EF90DF90CF9068
:10213000089580913302909134020E9431230597D3
:1021400070F310E0A801B601C7010E94222C892B70
:1021500041F0A801B601C7010E942F2C1092350250
:10216000DFCFC0E0FBCF0E944D250E943C0D0E94B6
:102170005A2508950E945F250E94490D0E947925E5
:1021800008950E94B2220E9433250E94220D0E94CF
:10219000B3100E94BA100E94320DFBCF80913C0216
:1021A00080FF0DC060910B0170E0660F771F6038F3
:1021B000710570F56115710569F1862F089581FF2C
:1021C00007C060910B0184E0689FB0011124EFCF3C
:1021D00060910B0182FD0AC080913B028823A9F027
:1021E00020910A0160910B01821710F088E0ECCF7A
:1021F000869FC001112433E0880F991F3A95E1F7BB
:10220000622F70E00E940E2BD2CF68E070E0D5CF35
:102210008FE7089581E0089580913C0280FF0CC013
:102220006091070170E075956795759567956115E3
:10223000710549F1862F089581FF06C0609107015D
:1022400070E075956795F3CF6091070182FD0BC033
:1022500090913A029923A1F06091060180910701C3
:10226000961738F0682F70E06038710500F38FE73B
:102270000895899FC001112470E00E940E2BF4CFB5
:1022800061E070E0D7CF81E00895803F31F40E9493
:10229000CE108195809340020895813F19F40E94E9
:1022A000CE10F8CF823F31F40E94CE1081958093FA
:1022B0003F020895833F19F40E94CE10F8CF893F62
:1022C00029F40E940C118093410208958A3F21F461
:1022D0000E940C118195F7CF8B3F31F40E940C11B5
:1022E00081958093420208958C3F19F40E940C114D
:1022F000F8CF9CE0980F953070F4845F990B21E043
:1023000030E001C0220F8A95EAF780913E02822BCD
:1023100080933E0208958D3F31F480913C028160AC
:1023200080933C0208958E3F21F480913C028260AC
:10233000F7CF8F3FB9F780913C028460F1CF409195
:102340003F02803F59F48091400287FF0DC01092F8
:10235000400241110BC010923B0208C0813F81F442
:102360008091400218169CF3442381F08091410231
:1023700090914202892B09F05AC010923A020895B6
:10238000823F49F447FFF0CF10923F028091400214
:102390008111ECCFE0CF833F19F41416ACF3E4CFF6
:1023A00090914102893F29F41916F4F610924102E6
:1023B000DBCF8A3F19F497FFD7CFF8CF9091420235
:1023C0008B3F29F497FFD0CF10924202CDCF8C3FA4
:1023D00019F41916CCF3C8CF9CE0980F953090F4FF
:1023E000845F990B21E030E0B90102C0660F771FCE
:1023F0008A95E2F7CB01809590913E0289238093E4
:102400003E02B2CF8D3F31F480913C028E7F8093AB
:102410003C02AACF8E3F21F480913C028D7FF7CF02
:102420008F3F09F0A1CF80913C028B7FF0CF0895C0
:102430000E9419239C0190913F0280914002982BA9
:1024400021F030933902209338029091410280911B
:102450004202982B21F030933702209336028DE30D
:1024600092E00E94E021089586E0EDE3F2E0DF01D2
:102470001D928A95E9F710923B0210923A0210924F
:102480003C020895FC01828181110EC0838181117B
:102490000BC08481811108C091E08581811101C048
:1024A00090E0892F8170089581E0FCCFA6E0B0E034
:1024B000ECE5F2E10C94912B86E0EDE3F2E0DE0135
:1024C000119601900D928A95E1F710923F021092B9
:1024D000400210924102109242028B819C81892B12
:1024E00089F080913802909139020E943123AC0129
:1024F00090913B029923C9F180910C018417150634
:1025000008F440C08D819E81892B91F08091360224
:10251000909137020E943123AC0190913A029923A5
:1025200009F471C0809108018417150608F479C078
:10253000BE016F5F7F4F8DE392E00E946F22811199
:1025400005C08DE392E00E94421281110E94181290
:1025500086E0FE013196ADE3B2E001900D928A95DE
:10256000E1F72696E3E00C94AD2B20910D018AE073
:10257000289F900111242417350720F69F5F909320
:102580003B0202C09F3FD1F71B81112359F00E94EB
:10259000CE109FEF11160CF491E0899F802D11242D
:1025A00080933F021C81112359F00E94CE109FEFAF
:1025B00011160CF491E0899F802D11248093400224
:1025C00030913F02332309F49DCF20914002222312
:1025D00009F498CF45EB3403C0011124992359F035
:1025E00090933F0245EB240390011124332339F0EB
:1025F0003093400287CF81E080933F02F3CF81E0A8
:10260000809340027FCF209109018AE0289F9001AA
:1026100011242417350708F08BCF9F5F90933A025F
:1026200002C09F3FD1F71D81112359F00E940C1168
:102630009FEF11160CF491E0899F802D1124809357
:1026400041021E81112359F00E940C119FEF1116B7
:102650000CF491E0899F802D1124809342023091E7
:102660004102332309F464CF20914202222309F46A
:102670005FCF45EB3403C0011124992359F09093A7
:10268000410245EB240390011124332339F03093A8
:1026900042024ECF81E080934102F3CF81E08093EC
:1026A000420246CFEF92FF920F931F93CF93DF9397
:1026B000EB01E82FD1110EC0442321F0F0E0EA51E4
:1026C000FE4FE4916E2F7E2F8E2FCDB7DEB7E6E062
:1026D0000C94AA2B0D2F10E0282F30E0442329F072
:1026E0002A513E4FF901249130E0F6E0CF9FC0011E
:1026F0001124EFEFF0E0BF010E94FA2AAB018C2F0A
:1027000090E0880F991FA5E5A49FB001A59F700DCB
:102710001124861B970B982F990F980FBF01601BF0
:10272000710B629FD001639FB00D729FB00D112499
:102730008B2F9D9FB0011124672F7727EF01C61BB8
:10274000D70BBE01629FE001639FD00D729FD00D39
:1027500011247F01E91AF108E09EB001E19E700D9D
:10276000F09E700D1124672F7727E61BF70BE29F71
:102770008001E39F100DF29F100D1124E12F722FA5
:102780004230510599F048F44115510569F0413046
:10279000510581F0EB2F8D2F07C04430510569F0B2
:1027A00080F046305105B1F76E2F8FCFE22F7B2F8F
:1027B000812FFACFE22F7D2FF7CFEB2F822F712FB2
:1027C000F3CF7B2F822FED2FEFCF41E00E945213EA
:1027D000089508950E94E5130895CF93DF93762F0F
:1027E000E901682F842F0E94EA13798368838A8322
:1027F000DF91CF910895453608F044E60E94ED132D
:10280000089580918002982F9E7F61F4817082608C
:102810008093800280918302853618F084E680934D
:10282000830208958635B0F381708465F1CF88E026
:1028300090E00E94402C0895CF92DF92EF92FF9299
:102840006B017C010E940114B701A60188E090E0B1
:102850000E945E2CFF90EF90DF90CF9008956091E2
:1028600080027091810280918202909183020E9485
:102870001C140895E0E8F2E083E0808311828FEF7A
:10288000828384E683831482608171818281938153
:102890000E941C1408958091800280FF02C08695DA
:1028A000089580E0089590918402933018F49F5F1A
:1028B00090938402882351F060918002709181028C
:1028C00080918202909183020E941C14089581E0FD
:1028D0000E945314089590918402992319F0915005
:1028E00090938402882351F060918002709181025C
:1028F00080918202909183020E941C14089581E0CD
:102900000E946B140895809184020895809384023C
:10291000662351F060918002709181028091820261
:10292000909183020E941C14089560E00E94861416
:102930000895809181020895809182020895809186
:102940008302089570E00E944E1B08956091120169
:102950008091800280FF0BC08091110123E0829F53
:10296000C00111248B579D4F0E94A214089580919D
:1029700013019091140123E0829FF0011124EB5781
:10298000FD4F891748F71182108212828F5F3396AC
:10299000F8CF9091800290FF0EC09091130120918A
:1029A000140133E0939FF0011124EB57FD4F921770
:1029B00018F00E94A61408958183608342839F5F6C
:1029C0003396F5CFA3E0B0E0E8EEF4E10C94922B5F
:1029D0009091800290FF0AC09E012F5F3F4F0E949E
:1029E000FB134B8169818A810E94C9142396E2E01E
:1029F0000C94AE2BCF93DF93EC01EC81F0E0EF5120
:102A0000FF4F4491E0E8F2E0628181810E94E2148C
:102A10008C818F5F8C83DF91CF910895CF93DF936B
:102A2000EC01E0E8F2E0438162818C810E94E214D3
:102A30008C818F5F8C83DF91CF910895A3E0B0E00C
:102A4000E4E2F5E10C94902B8C018091430281111A
:102A50000AC09E012F5F3F4F44E66FEF0E94FB13B9
:102A60008A8180934302F8016481613069F080912A
:102A7000430240E0662361F040E0623011F440918F
:102A8000430280E060E004C06091430240E080E0E7
:102A90000E94C914F801848190E0019663E070E01F
:102AA0000E940E2B84832396E4E00C94AC2BA3E0CD
:102AB000B0E0EDE5F5E10C948B2B082FD62EE42E3B
:102AC000C22E9091800290FF29C0E92FE695AE2F8B
:102AD000B0E0AC56BE4F8C91809361029E7F9230E5
:102AE00009F59E012F5F3F4F802F0E94FB134B8102
:102AF00069818A810E94C91400938102D092820266
:102B0000E0928302CC2051F06091800270918102AA
:102B100080918202909183020E941C142396E9E026
:102B20000C94A72B823019F4E0908302E5CF863015
:102B300019F400918102E0CF8930D9F38931E1F6AF
:102B4000E9516E2F6170B62EE695F0E0EF51FE4F21
:102B50001491F12C60911501F61618F00E94A6143C
:102B6000CBCFF19EC001112470E00E94FA2A802F81
:102B7000B11014C0860F20911301622F6F0D7727BB
:102B8000771F9B01220F331F260F371F2B573D4FF7
:102B90004E2D6D2D0E94FB13F394DCCF861BEBCFE3
:102BA000E0E8F2E09181282F4381628188E0890F7B
:102BB0000E945715089581E00E94D0150895E0E81D
:102BC000F2E09181282F4381628188EF890F0E9472
:102BD0005715089581E00E94DF150895E0E8F2E0BE
:102BE000628121E1620F08F46FEF282F4381818118
:102BF0000E945715089581E00E94EE150895E0E8BF
:102C0000F2E0628121E1621B08F460E0282F438139
:102C100081810E945715089581E00E94FF15089553
:102C2000E0E8F2E0438121E1420F08F44FEF282F62
:102C3000628181810E945715089581E00E941016DB
:102C40000895E0E8F2E0438121E1421B08F440E00E
:102C5000282F628181810E945715089581E00E948A
:102C60002116089520E00E9457150895EF92FF92D3
:102C70001F93CF93DF93EC0110E0EE24EA94F12C44
:102C800060911501161770F00E94A6149A818C812C
:102C900090FF27C08F5F8C83DF91CF911F91FF90B2
:102CA000EF90089520911301422F410F5527551F92
:102CB000CA019A01220F331F280F391F2B573D4F8E
:102CC00070E0C7010E940E2B962F8C8140918302E9
:102CD00060918202199F800D11240E94FB131F5FD7
:102CE000CFCF8150D8CFB0E0A0E0E9E7F6E10C9477
:102CF0008B2BFC0182810FEF80FF01E010E08091BF
:102D00001501181798F00E94A61480914502013011
:102D100009F04CC0811102C080911501815080934F
:102D20004502CDB7DEB7E9E00C94A72BC0911301A3
:102D3000C12ED12CCC0DDD2DD11DCE01880F991FB8
:102D4000C80FD91FCB57DD4F198218821A8234E081
:102D5000E32EF12CB12C809145028B0D853004F1CE
:102D60008370082E000C990BC816D90691F4809137
:102D700083028E9DA0018F9D500D1124559547957E
:102D8000559547959E0160918202809181020E9433
:102D9000FB13B00EF1E0EF1AF108E9F61F5FAFCFB9
:102DA00087FFDFCF90911501890FDBCF90E001966F
:102DB0006091150170E00E940E2BB1CF0F931F930D
:102DC000CF93DF93809113019091140123E0829FB0
:102DD000F0011124EB57FD4F891740F1C0E0D3E01B
:102DE00060911501C61740F10E94A61420910F01B1
:102DF00080914402820F8093440290911001920FBF
:102E000090931001191654F4082E000C990B409160
:102E100015014150550B841795071CF021952093FF
:102E20000F01DF91CF911F910F91089511821082B0
:102E300012828F5F3396D0CF0C2F10E070E0C80164
:102E40000E940E2B20911301820F482F50E02091F9
:102E50004402022E000C330B02171307BCF0209122
:102E60001001022E000C330B201731077CF08D9FD0
:102E7000900111242B573D4F4091830260918202B3
:102E8000809181020E94FB13CF5FAACFFA01EE0F5F
:102E9000FF1FE40FF51FEB57FD4F118210821282C6
:102EA000F3CFB0E0A0E0E7E5F7E10C94882BEC016C
:102EB0004C81042F10E09801D8010E94592B9B01EE
:102EC000AC010E946F2B4B015C01E0E2F0E0E01BE3
:102ED000F10BA5E5B0E0AC019B010E946F2B6B01EB
:102EE0007C019F01DF010E94512B9B01AC010E94DC
:102EF0007A2B9B01AC01280D391D4A1D5B1DC701B2
:102F0000B6010E94222BF22E822F90E039E23F156B
:102F100020F143E0249F9001112435952795122F2D
:102F2000109500E085E5E82EEF188091150108174F
:102F300018F10E94A6149C8181E0992319F0903227
:102F400019F48FEF80930E0180910E01890F8C830D
:102F5000CDB7DEB7ECE00C94A42B25E530E0B90149
:102F6000681B790B9B01220F331F260F371F37FF7A
:102F7000D4CF2F5F3F4FD1CF8E2D01FD8F2D2091CC
:102F80001301622F600F7727771F9B01220F331FDA
:102F9000260F371F2B573D4F412F609182020E9411
:102FA000FB130F5FC2CF0F931F93CF93DF93EC01FF
:102FB00010E000E0909115019017110609F06CF4F3
:102FC0000E94A6148C8190E00196817099278C83D1
:102FD000DF91CF911F910F91089520911301A801C6
:102FE000420F511D9A01220F331F240F351F2B57FB
:102FF0003D4F4C816091820280918102969590179D
:10300000110651F04CF0442349F0409183020E9494
:10301000FB130F5F1F4FCECF4423B9F340E0F7CF30
:10302000B0E0A0E0E6E1F8E10C94842BFC016280C2
:10303000448081E08483E1EEF0E07490E0E6F1E02A
:10304000E491812C75E0972EF2E0CF2EDD24D3940D
:10305000AA24AA94B12C55245A94E7190E2F10E0F3
:1030600080911501881638F00E94A614CDB7DEB7FE
:10307000E0E10C94A02BE82CF12C82E0861568F09E
:103080009E9CF0019F9CF00D1124EA5BFD4F809106
:1030900081028083809182028183411023C09E9CA3
:1030A000F0019F9CF00D1124EA5BFD4F1382128208
:1030B00020911301C701820F911D9C01220F331F24
:1030C000280F391F2B573D4F9E9CF0019F9CF00D00
:1030D0001124EA5BFD4F4281618180810E94FB13D4
:1030E0008394BECF9E9CE0019F9CD00D1124CA5BAF
:1030F000DD4F8B818823E9F081508B83859DC00152
:1031000011246C8170E00E94FA2AFB01FF27EF5125
:10311000FF4F8491E82FE719E59DC0011124B80104
:103120000E94FA2A80918302689FB00111247A8359
:10313000BFCF0E94052C20918302269521582C9DFB
:10314000A0012D9D500D1124452F5527841795075B
:103150000CF0AECF82E0861588F40E94052CB501F4
:103160000E940E2B88830E94052C209182022695B6
:10317000622F70E00E940E2B280F29839E9CF00185
:103180009F9CF00D1124EA5BFD4F12828091830217
:10319000893C58F088EC9E9CF0019F9CF00D112416
:1031A000EA5BFD4F8483838383CF8431A0F784E17E
:1031B000F2CFE0E8F2E080818E7F808360817181D0
:1031C000828193810E941C14109262022FEF80E78B
:1031D00092E0215080409040E1F700C000000E9442
:1031E000A6140895E0E8F2E080818E7F808310923B
:1031F00062022FEF80E792E0215080409040E1F79B
:1032000000C000000E94A614089560918002669597
:1032100070E04BE050E086E191E00E94152C892B94
:1032200019F481E0809362020E94192390935B025B
:1032300080935A0208959091800290FF2BC0917064
:10324000811129C0926090938002662351F06091B1
:1032500080027091810280918202909183020E948B
:103260001C1460918002669570E04BE050E086E1AE
:1032700091E00E94152C892BA9F01092620281E046
:1032800080935D024091830260918202809181026D
:103290000E94321608958B3210F09465D4CF880FB7
:1032A000982BD1CF0E940519EACF682F9091800208
:1032B000969581E0890F8B3208F081E00E941B19FE
:1032C000089581E00E9455190895682F9091800219
:1032D00096958FEF890F09F48AE20E941B190895D1
:1032E00081E00E946519089561E00E941B1908950C
:1032F000E0E8F2E080818160808386950E94741905
:1033000008958091800280FF03C00E94D91808951B
:103310000E947819089560E00E941B190895809119
:10332000600281112EC00E94500C811104C00E94C5
:10333000FD0C0E943A140E9417146093800270934F
:10334000810280938202909383026E7F61F40E94D7
:103350003A140E9417146093800270938102809344
:103360008202909383020E94011410926202809163
:10337000800280FF03C086950E948B1981E08093B4
:1033800060020895E0E8F2E08081816080838695A4
:103390000E948B1908950F931F93CF93DF93809111
:1033A00062028823B9F180916102E0918002E69582
:1033B000E81BE0935C02823091F5F0E0E352FF4FAE
:1033C000E491CE2FD0E00AEF14E180915D028823D2
:1033D00061F010925D020E94192390935B0280932A
:1033E0005A0210925F0210925E020E941923E0912D
:1033F0005A02F0915B028E1B9F0B8F3F9F4750F448
:10340000EC0FFD1FF0935B02E0935A028AE592E015
:10341000F8010995DF91CF911F910F9108958630A2
:1034200049F4F0E0E652FF4FE491CE2FD0E00EE0F9
:1034300015E1CBCF893051F4E695F0E0E952FF4F2A
:10344000E491CE2FD0E006E316E1BFCF8F3051F4E8
:10345000E695F0E0EC52FF4FE491CE2FD0E003E789
:1034600016E1B3CF853149F4F0E0EF52FF4FE4911C
:10347000CE2FD0E00EED16E1A8CFC8E2D0E001E5F6
:1034800017E1883109F4A1CF833239F4EFECF0E091
:10349000C591D4910EE115E198CFC4EFD1E003EDD1
:1034A00017E1843209F491CFC0EDD7E009EE13E1C2
:1034B000853209F08ACF8E2F63E00E94EE2AE92F31
:1034C000F0E0E453FF4FE491CE2FD0E000E118E1AB
:1034D0007CCFFA01811101C0FB0109950895CF93BA
:1034E000DF93C82FD62F0E944B148C1748F00E94F0
:1034F0004B148D1728F40E946119DF91CF91089524
:103500008C2F0E947419F9CF1F93CF93DF93EC0196
:10351000FB01128111111BC00E94620B8272CC3C14
:10352000FCE5DF0709F4A0C008F045C0C63CECE5A7
:10353000DE0709F485C0F8F4C33C9CE5D90709F41B
:1035400075C050F4C23CDC4509F46DC011E0812F18
:10355000DF91CF911F910895C43C9CE5D90709F4F0
:103560006AC04AEE55E16BED75E1C53CDC4571F78B
:103570000E94691AECCFC93CFCE5DF0709F46AC078
:1035800068F4C73CECE5DE0709F45FC04BEF55E19A
:103590006CE076E1C83CDC4559F3D8CFCA3C9CE5E9
:1035A000D90709F45CC04FE754E167E674E1CB3C0E
:1035B000DC45F1F2CBCFC13DFCE5DF0709F463C088
:1035C00098F4CE3C9CE5D90709F457C008F451C0E3
:1035D000CF3CFCE5DF0709F453C0C03DDC4509F0F2
:1035E000B5CF6EE089E01CC0C43D9CE5D90709F465
:1035F00050C058F4C23DFCE5DF0709F447C0C33DA5
:10360000DC4509F0A3CF88E135C0C53D9CE5D9076D
:1036100009F442C06AE285E2CD35DD4509F096CF76
:103620000E946F1A94CF0E94811991CF40E759E10F
:1036300061E679E19DCF41E659E160E779E198CF14
:103640004BED55E16AEE75E193CF4CE056E16BEF3F
:1036500075E18ECF4EE256E16DE176E189CF4DE125
:1036600056E16EE276E184CF47E654E16FE774E11C
:103670007FCF81E00E9474196ACF65E082E0D0CFED
:1036800068E086E0CDCF64E18FE0CACF67E185E1F5
:10369000C7CF62E289E1C4CF83E2ECCF539A4BB14A
:1036A000477F5BB15860EFB7F8949B01220F331F3F
:1036B000260F371F280F391F2817390741F4EFBF8E
:1036C0008FE594E00197F1F700C000000895DC0158
:1036D0006D91CD0178E05BB9000000C067FF4BB988
:1036E000660F000000C000C000C04BB900C07A9552
:1036F00091F7E2CF83E290E00E94382C833289F484
:1037000084E290E00E94382C813059F485E290E008
:103710000E94382C91E0863109F090E0892F817069
:10372000089580E0FCCFCF93C82F6FEF811163E243
:1037300083E290E00E944C2C6FEFC11161E084E2C3
:1037400090E00E944C2C6FEFC11166E185E290E0A1
:103750000E944C2CCF910895089586E290E00E943B
:10376000382C682F70E090E080E008950895CF93A2
:10377000C62F0E94B61B6C2F86E290E00E944C2C54
:10378000CF91089580E00E94931B60E070E0CB0130
:103790000E94B71B0E94AC1F0E94832081E00E9400
:1037A000931B08950E94AC1B0E94AD1B0E94B61B88
:1037B0000E947A1B811102C00E94C21B0895CF9300
:1037C000FB01C281CC2309F19C0122513F452031EC
:1037D000310520F582510E949320C0E08C2FCF91BB
:1037E000089581E00E949D0743E062E081E00E942D
:1037F0000F03F3CF81E00E94A90743E062E081E07C
:103800000E940F03EBCF82E0F6CF8031FFE59F07E8
:1038100089F381319F45B9F3C1E0E0CF8031EFE515
:103820009E07F9F281319F45C9F682E0DBCF2FEF89
:10383000FC0120830895CF93DF93EC0188818138C8
:10384000E9F028F4803871F0DF91CF910895823843
:10385000C9F08338C9F70E94991489830E949C1487
:103860008A83F2CF0E949F142FEF829FC001112400
:1038700064E670E00E94FA2A6983E6CF0E944B1446
:103880008983E2CF0E948314FBCFCF93DF93EC01B7
:103890008881813821F128F4803869F0DF91CF9157
:1038A0000895823841F18338C9F70E949F14482F48
:1038B0006A81898111C0898124E6829FC001112417
:1038C0006FEF70E00E94FA2AD62F0E949C14C82F36
:1038D0000E9499144D2F6C2F0E943216DFCF8981E0
:1038E0000E948B198981811103C00E94F218D6CFE2
:1038F0000E94C219D3CF89810E949514CFCF1F9304
:10390000CF93DF93EC01162FDC01ED91CD01E15057
:10391000E33108F0A0C0F0E0E355F34D0C94442BE4
:1039200019828AE08A830FC089818230A1F08330B6
:10393000A9F08130B9F40E9425230E944A2B6A83A2
:103940007B838C839D83612FCE010E940624DF91AF
:10395000CF911F9108950E94AD1BEFCF80E00E9490
:10396000D10FE0CF612FCE010E94171CECCF8981CF
:103970008230C1F76A817B818C819D810E944A2BB4
:103980000E94B71BE0CF4B816A8189810E94611F31
:103990009827892798279D838C83D5CF2C813D81BB
:1039A0003227232732274B816A8189810E948B1F0E
:1039B000CACF0E94AC1FC7CF0E94451CC4CF0E9433
:1039C0001B1CC1CF0E942F14BECF0E9434208983BC
:1039D000BACF0E9436209827892798279A8389830F
:1039E000B2CF6B8170E089819A81AE014C5F5F4FED
:1039F0009827892798270E943920A5CF6B8170E0EE
:103A000089819A81AE014C5F5F4F9827892798275B
:103A10000E945E2098CF0E94832095CF0E945F1F56
:103A2000D6CF6B8170E089819A81AE014C5F5F4F88
:103A30009827892798270E94E01F85CF6B8170E027
:103A400089819A81AE014C5F5F4F9827892798271B
:103A50000E94032078CF8FEF888375CFCF93DF93B9
:103A6000EC01FB018281882309F464C1C330FDE5C8
:103A7000DF07E0F5CA3F9CE5D90730F49E012250EC
:103A80003C4524313105D8F50E94660C90937D02A7
:103A900080937C02C231ECE5DE0709F41FC108F017
:103AA0006EC0C9308CE5D80709F4F2C008F03FC0F9
:103AB000C530ECE5DE0709F4DBC058F5C3308CE512
:103AC000D80709F4CDC008F0CFC080917C02816096
:103AD000C230DC4509F4AEC080917C0290917D0239
:103AE0000E94740C0E941B0780E009C0C53AEDE5F6
:103AF000DE0751F238F4C1369DE5D90729F2DF918E
:103B0000CF9108959E012D5A3D4523303105B8F7D8
:103B1000BBCF80917C028062C730FCE5DF0709F4EF
:103B200089C008F4B1C080917C02806483C0CD302C
:103B30009CE5D90709F4BAC070F480917C028E7FAD
:103B4000CB30FCE5DF0709F475C008F4A7C080910D
:103B50007C028D7F6FC0CF309CE5D90709F4B6C0D9
:103B600008F4A8C0C031FCE5DF0709F4B3C0C131D7
:103B7000DC4509F0B1CF80917C028F7B5BC0CF3FE9
:103B80009CE5D90709F4B4C098F5CA3FFCE5DF0706
:103B900009F472C0B8F4C4319CE5D90709F4B6C081
:103BA00008F4A2C0C531DC4509F096CF80917C02B3
:103BB00082FB992790F921E0922790FB82F990FBF4
:103BC00083F938C0CC3F8CE5D80709F477C008F4F6
:103BD00057C0CD3FECE5DE0709F474C080917D024B
:103BE0008360CE3FDC4509F077CF80937D0274CFB0
:103BF000C1368DE5D80709F496C068F4C130EDE50B
:103C0000DE0709F48CC008F477C0C230DD4509F046
:103C100063CF80E085C0CD3A9DE5D907E9F068F42F
:103C200090917C02892F8E7F90FF8160C53ADD459F
:103C300009F052CF80937C024FCFCE3A8DE5D80762
:103C400089F1CF3ADD4509F047CF90917D02892F68
:103C5000877F93FF8860C9CF80917D028860C5CF40
:103C600080917C028260E6CF80917C028460E2CF0A
:103C700080917C028860DECF80917D028160B5CF2B
:103C800080917D028260B1CF80917C028061D2CF31
:103C90000E941B0780917C028068CCCF80917C02BF
:103CA0008C60C8CF80917D02877F9FCF80917C02FE
:103CB0008B7FC0CF80917C02877FBCCF80917D02BB
:103CC0008E7F93CF80917D028D7F8FCF80917C02FC
:103CD0008F7EB0CF80917C028F7DACCF0E941B077E
:103CE00080917C028F77A6CF80917C02837FA2CFC8
:103CF00080917D028C7F79CF80917D02982F909565
:103D000091708E7F892B90FB81F96FCF0E941B07EA
:103D100090917C02892F97FB87F980588BCF81E0A7
:103D20000E94000DD9CE90917C02892F8F7E94FF46
:103D3000806180CF81E0E3CEB0E0A0E0E2EAFEE186
:103D40000C948D2BE82FF0E0EA51FD4FD490282FF2
:103D500026952695269530E0F901EA57FC4F049107
:103D6000877010E0082E02C0159507950A94E2F7B7
:103D700001701127F901EA58FC4FE490F12C082E4C
:103D800002C0F594E7940A94E2F791E0E922FF2457
:103D9000F901EA59FC4FC491D0E002C0D595C7950E
:103DA0008A95E2F7C170DD270115110519F081EE42
:103DB0000E941204E114F10419F086EE0E9412042C
:103DC0008D2D0E94A804E114F10419F086EE0E94E2
:103DD0005E040115110519F081EE0E945E04CD2BE1
:103DE00019F08CE20E94A804CDB7DEB7E7E00C948E
:103DF000A92BEF92FF920F931F93CF93DF93EC01C8
:103E0000162F0AE08881882309F454C0813009F014
:103E10004EC08981813099F47E0122E0E20EF11CCE
:103E20008A810E94A804E7012196812F815050F3D6
:103E3000EFE9FFE03197F1F700C00000F7CF8230E3
:103E400041F47E0182E0E80EF11C8A810E94120496
:103E5000EACF833041F47E01E2E0EE0EF11C8A816C
:103E60000E945E04E0CF843011F02196DDCF2A81DC
:103E7000229690E080E0AE014F5F5F4F2053330BFE
:103E80002A30310548F0019778F2EFE9FFE03197E9
:103E9000F1F700C00000F7CF089FB001099F700D37
:103EA0001124C901860F971F2981EA01E4CF0E94DE
:103EB0009C1EBACFCDB7DEB7E6E00C94AA2B84E007
:103EC00008950F931F93CF93DF93843008F561110A
:103ED0001FC04430E8F428E0829F8001112450E0A4
:103EE000440F551F040F151FC80187960E94382CD8
:103EF000C82FD0E0DC2FCC27C80188960E94382C30
:103F00009E01282BC901DF91CF911F910F91089538
:103F100090E080E0F8CF1F93CF93DF93122F84308F
:103F2000B8F4611115C0443098F498E0899FE0011D
:103F3000112450E0440F551FC40FD51F632FCE012D
:103F400087960E944C2C612FCE0188960E944C2CA3
:103F5000DF91CF911F910895CF92DF92EF92FF9260
:103F60001F93CF93DF938CEAC82E80E0D82ED0E049
:103F7000C0E0760110E00E94A10221E030E08C1741
:103F80001D0621F01CF0F70125913491412F60E0CE
:103F90008C2F0E948B1F82E0E80EF11C1F5F1430F3
:103FA00051F7219688E0C80ED11CC430D10509F71D
:103FB000DF91CF911F91FF90EF90DF90CF90089508
:103FC000EF92FF920F931F93CF93DF93EC018A013F
:103FD0007C01E60EF71ECE018796CE15DF0529F48B
:103FE000CDB7DEB7E6E00C94AA2BC032D10540F481
:103FF0000E94382CF80180830F5F1F4F2196EBCF72
:10400000F8011082F9CFB0E0A0E0E9E0F0E20C9412
:104010008C2B7C016A018C01060F171FEC01CE016D
:104020008796C017D10729F4CDB7DEB7E8E00C9426
:10403000A82BC032D10540F4FE01EE19FF09EC0DAA
:10404000FD1D60810E944C2C2196E9CF462F8430C3
:1040500040F4711106C0643020F460E00E94611FDA
:10406000089590E080E0089580E1089589EB93E061
:104070000895EF92FF920F931F93CF93DF93EC017C
:104080008A017C01E60EF71ECE01895B9F4FCE159B
:10409000DF0529F4CDB7DEB7E6E00C94AA2BC93BC7
:1040A00023E0D20740F40E94382CF80180830F5F90
:1040B0001F4F2196E9CFF8011082F9CFB0E0A0E0C0
:1040C000E4E6F0E20C948C2B7C016A018C01060F73
:1040D000171FEC01CE01895B9F4FC017D10729F450
:1040E000CDB7DEB7E8E00C94A82BC93B23E0D2079C
:1040F00040F4FE01EE19FF09EC0DFD1D60810E94E8
:104100004C2C2196E7CFCF93DF93C7E4D0E060E05B
:10411000CE010E944C2C2196C11584E0D807B9F736
:10412000DF91CF910895A4E0B0E0E9E9F0E20C94CA
:104130008D2BF82E8FE08F1548F18FEF93E00E94C2
:10414000382C811123C007E410E0F11023C019823C
:104150001A821B821C82DD24D39478018FEFE81A27
:10416000F80AC8010E94382C89831A82882371F0CA
:104170009FEF980F9330D8F48A83D9820E5F1F4F38
:10418000C7010E94382C8B83811112C02496E7E06E
:104190000C94A92B011584E01807C1F3C8010E94F3
:1041A000382C811101C0FA940F5F1F4FCECF8701C9
:1041B00065E0CE0101960E94F91ECFCFCF93DF9329
:1041C000EB0186319C4511F50E94620B9A8199237F
:1041D00099F08A7A91E009F490E09093630281115A
:1041E00009C089E20E943A0B0E94A30B80E0DF9194
:1041F000CF91089585E3F6CF80916302811104C0C9
:1042000089E20E94420BF0CF85E3FBCF81E0EFCF44
:104210000F931F93CF93DF93C42FD22FFC01828182
:104220008823C9F0409366020E9419239093650287
:104230008093640280E28C0F883040F4C77081E084
:1042400001C0880FCA95EAF70E94B104DF91CF91AF
:104250001F910F91089510916602141332C080913E
:104260006402909165020E943123883C910548F5D3
:10427000C0E2CD0F1D17B9F080E2810F883040F405
:10428000177081E001C0880F1A95EAF70E94B80400
:10429000C83048F481E09D2F977001C0880F9A952F
:1042A000EAF70E94B104802F0E94A804C83070F67B
:1042B000D77081E001C0880FDA95EAF70E94B80450
:1042C000C5CF80E28C0F883008F6C77081E001C04E
:1042D000880FCA95EAF7F2CF0F939C01CB01233FD9
:1042E0004CE5340759F1A8F4283DFCE53F0701F1FE
:1042F000293D4CE53407D1F1273D3C4591F406E2D8
:1043000021EE41EE67ED7CE50E94082180E00F91EF
:104310000895253FFCE53F07E9F0B0F0263F3C4516
:10432000F9F0FC018281882339F110926602EFCF07
:1043300007E225EE45EE68ED7CE5E6CF06E221EEEC
:1043400040EE63EF7CE5E0CF07E225EE44EE64EF5C
:104350007CE5DACF06E221EE42EE65EF7CE5D4CFD4
:1043600007E225EE46EE66EF7CE5CECF08E221E0DF
:1043700045EE69ED7CE5C8CF81E0C9CF9093CF01D0
:104380008093CE01089590936C0280936B02089500
:10439000E0916B02F0916C02309729F00190F0816E
:1043A000E02D0995089580E00895E0916B02F09169
:1043B0006C02309721F00280F381E02D0995089579
:1043C000E0916B02F0916C02309739F022E0DC0151
:1043D0002C930480F581E02D0995089520916902C0
:1043E00030916A022817390771F090936A0280931E
:1043F0006902E0916B02F0916C02309721F0068027
:10440000F781E02D099508952091670230916802A7
:104410002817390771F09093680280936702E09142
:104420006B02F0916C02309721F00084F185E02D51
:10443000099508959C012E5F3F4FAC01485F5F4F87
:1044400080E02417350709F40895F90191919F013F
:104450009923B9F38F5FF5CF662349F0FC013296BB
:1044600008962191261729F0E817F907D1F780E07F
:10447000089581E008959C01FC0132969FEF80E051
:104480004191461751F09F3F19F4411101C0982FF7
:104490008F5F8630A9F79F3F09F40895290F311DDA
:1044A00097FD3A95F90162830895FC0132960896CA
:1044B0002191261303C0DF0111971C92E817F90719
:1044C000B9F708950E943B2208950E94552208954D
:1044D000029626E0FC0111922A95E9F7089546E03C
:1044E00050E00E94222C21E0892B09F420E0822F49
:1044F000089508950E9479220895811106C081E0EF
:1045000080936D020E947A22089582E0F9CF83E0C1
:1045100080936D020E947A2208950E947D22089560
:1045200081E080936D020E947A2208950E94902279
:104530000895089508950E949A220895089508956F
:104540000E94992208950E949E220E9450100E946B
:104550009F2280E00E94D10F91E0811101C090E084
:10456000892F089585B7806885BF85B7806885BF26
:1045700008951F921FB61F9211248F939F93AF939C
:10458000BF9380916E02811113C08091910290912E
:104590009202A0919302B09194024196A11DB11D87
:1045A0008093910290939202A0939302B09394020D
:1045B000BF91AF919F918F911F901FBE1F90189533
:1045C00080919902843031F10E94980310926E021A
:1045D00088E190E020E40FB6F894A89580936000FD
:1045E0000FBE2093600083B7817F846083BF83B751
:1045F000816083BF7894889583B78E7F83BF0FB621
:10460000F894A89580916000886180936000109272
:1046100060000FBE08950E941B070E949D0308952D
:1046200082E084BD93E095BD9AEF97BD80936E00C4
:1046300008952FB7F8948091910290919202A091E1
:104640009302B09194022FBF08952FB7F894609110
:1046500091027091920280919302909194022FBFE7
:1046600008959C014FB7F894809191029091920225
:10467000A0919302B09194024FBF821B930B0895B7
:1046800078941F921FB61F9211248F939F93AF931C
:10469000BF938091910290919202A0919302B09168
:1046A00094020196A11DB11D8093910290939202F4
:1046B000A0939302B0939402BF91AF919F918F9179
:1046C0001F901FBE1F90189587E797E790930108EA
:1046D0008093000888E19AE00FB6F894A89580933B
:1046E00060000FBE90936000FFCF88E19AE00FB6A4
:1046F000F894A895809360000FBE90936000FFCF60
:1047000080917A02089508959C0184E08093E900E5
:104710009FEF8091E800915085FD06C085ED8A9558
:10472000F1F700009111F5CF8091E80085FF0CC0F2
:1047300050E040E066E070E0C9010E9418268091D8
:10474000E8008E778093E8000895CF93DF93EC0123
:1047500081E08093E9008FEF9091E800815095FD12
:1047600006C095ED9A95F1F700008111F5CF809183
:10477000E80085FF14C050E040E068E070E0CE0142
:104780000E9418268091E8008E778093E80088E0E8
:10479000FE01A2E7B2E001900D928A95E1F7DF9168
:1047A000CF91089580936F027093710260937002AD
:1047B000809199028430F9F48093E9008FEF909111
:1047C000E800815095FD06C095ED9A95F1F700003F
:1047D0008111F5CF8091E80085FF0DC050E040E0E9
:1047E00063E070E08FE692E00E9418268091E80076
:1047F0008E778093E8000895BC0184E00E94D22364
:104800000895BC0183E00E94D2230895CF93FC0158
:10481000603221F580919902843001F5C091E90060
:10482000CF702091EC00922F917020FD90E8C92B61
:1048300082E08093E9008091E80080FF0CC050E0A6
:1048400040E060E270E0CF010E9418268091E8000D
:104850008E778093E800CF70C093E900CF910895E0
:1048600080919802811109C00E94F7270E94542864
:104870008091E20084608093E20008951092980293
:1048800008950E94902208956091950281E061113F
:1048900001C080E00E94872208959091990281E0F2
:1048A000943009F080E0609195020E948D22089575
:1048B00042E061EC81E00E94732742E261EC84E017
:1048C0000E94732742E261EC82E00E94732742E279
:1048D00060EC83E00E9473279091990281E094300C
:1048E00009F080E0609195020E947D2208958091F8
:1048F0009B02833009F463C030F48130E1F18230EF
:1049000009F4A0C008958A3009F48CC08B3009F4F2
:1049100071C0893009F052C080919A02813209F049
:104920004DC080919E0290919F02009719F00297CE
:1049300009F044C08091E800877F8093E80080916F
:10494000E80082FF37C09091F3008091F200029757
:1049500031F48091F100813011F0863021F48091A2
:10496000F10080937A028091E8008B778093E800D1
:104970000E94A72723C080919A02813AF9F480917E
:10498000E800877F8093E80080919E0290919F02CB
:10499000892B61F468E082E792E070E00E94B6261D
:1049A0008091E8008B778093E800089560E090E0C4
:1049B00080E0F3CF809199028111C1CF0895809159
:1049C0009A02813AD9F780919E0290919F02892B99
:1049D000A9F78091E800877F8093E8008091E80044
:1049E00080FFFCCF80912D018093F1008091E80041
:1049F0008E77BCCF80919A02813201F780919E021E
:104A000090919F02892BD1F68091E800877F809357
:104A1000E8000E94A72780919C0280932D010E94AC
:104A20001B07089580919A02813241F68091E80037
:104A3000877F8093E8000E94A72780919D02809342
:104A40007B02089580919A02813A09F0B7CF809154
:104A5000E800877F8093E8008091E80080FFFCCF2A
:104A600080917B02C1CF84B7877F84BF0FB6F89453
:104A7000A89580916000886180936000109260002A
:104A80000FBE80E890E00FB6F89480936100909399
:104A900061000FBE0E94962208950E94F7270E948F
:104AA0005428E2EEF0E080818460808378940E9454
:104AB000D32A089581E291E00E94C3210895809154
:104AC0009902853031F480919902853019F00E9465
:104AD0000B2308950E94E02280919702882399F386
:104AE0000E94A322882379F30E9402260E941B07BA
:104AF000EACFA0E2B0E0EFE7F5E20C94922B8091D0
:104B00009902843009F583E08093E9008091E80000
:104B100082FF1AC08091E80090E085FF09C050E054
:104B200040E060E270E0CE0101960E94672691E0CD
:104B30008091E8008B778093E800992329F060E268
:104B4000CE0101960E947F1CA096E2E00C94AE2B51
:104B50000E94AB250895292F33272330310521F1F9
:104B600068F42130310509F443C02230310509F4DD
:104B700044C090E080E030E020E026C021323105E2
:104B800051F122323105A9F76330710590F7FB012D
:104B9000EE0FFF1FEE53FE4F2081318161547E4F97
:104BA000FB01808190E010C099278130910581F050
:104BB000009729F00297E9F6E6E9F3E002C0E6EB98
:104BC000F3E0849190E09F01FA01318320830895FE
:104BD000E2EAF3E0F6CF6330710558F6660F771F0F
:104BE000FB01E853FE4F2081318189E090E0ECCF5A
:104BF00082E190E025E134E0E7CF8BE590E02AEB1D
:104C000033E0E2CF80E189BD82E189BD09B400FED5
:104C1000FDCF8091D8008F7D8093D8008091E000F7
:104C200082608093E0008091E00081FDFCCF0895D8
:104C3000AF92BF92CF92DF92FF920F931F93CF93C9
:104C4000DF936C01EB018A010E94C627F82E8111C7
:104C500023C00115110539F0F80180819181C81B2D
:104C6000D90BC80ED91EB12CA12C2097A9F0809188
:104C7000E80085FD22C08091E8008E778093E800EF
:104C800001151105A1F0F80180819181A80EB91ECE
:104C9000B182A08285E0F82E8F2DDF91CF911F91F8
:104CA0000F91FF90DF90CF90BF90AF9008950E943A
:104CB000C6278823D1F2F82EEFCFF60181916F013C
:104CC0008093F1002197FFEFAF1ABF0ACECFAF92CA
:104CD000BF92CF92DF92FF920F931F93CF93DF93F8
:104CE0006C01EB018A010E94C627F82E811123C0B6
:104CF0000115110539F0F80180819181C81BD90B8C
:104D0000C80ED91EB12CA12C2097A9F08091E800E3
:104D100085FD22C08091E8008B778093E800011523
:104D20001105A1F0F80180819181A80EB91EB18210
:104D3000A08285E0F82E8F2DDF91CF911F910F91EA
:104D4000FF90DF90CF90BF90AF9008950E94C6274C
:104D50008823D1F2F82EEFCF8091F100F6018193F4
:104D60006F012197FFEFAF1ABF0ACECFFC018091F0
:104D7000A0029091A10286179707A0F06115710516
:104D800029F49091E8009E779093E80090E06115F7
:104D9000710551F4911108C08091E80082FF34C080
:104DA00080E00895BC01F2CF809199028823C1F17F
:104DB0008530C1F18091E80083FD30C08091E8002A
:104DC00082FDEACF8091E80080FFE1CF8091F3007F
:104DD0002091F200382F6115710519F02830310546
:104DE00058F091E02830310509F090E02091E8007A
:104DF0002E772093E800CBCF81918093F100615012
:104E000071092F5F3F4FE7CF80919902882341F0CE
:104E1000853041F08091E80083FFBECF81E00895A6
:104E200082E0089583E00895FC018091A0029091B2
:104E3000A10286179707A0F06115710529F48091EA
:104E4000E8008E778093E80090E06115710551F4D9
:104E5000911108C08091E80082FF35C080E008957C
:104E6000BC01F2CF809199028823C9F18530C9F144
:104E70008091E80083FD31C08091E80082FDEACF97
:104E80008091E80080FFE1CF8091F3002091F20053
:104E9000382F6115710519F02830310558F091E06F
:104EA0002830310509F090E08091E8008E778093FA
:104EB000E800CBCF84918093F10031966150710965
:104EC0002F5F3F4FE6CF80919902882341F08530D4
:104ED00041F08091E80083FFBDCF81E0089582E03A
:104EE000089583E00895982F973028F08F7080936D
:104EF000E90081E008959093E900242F762F50E097
:104F0000981731F07091EC002091ED005091F00075
:104F100021FD02C09F5FE8CF3091EB003E7F3093D0
:104F2000EB003091ED003D7F3093ED003091EB00D0
:104F300031603093EB007093EC002093ED005093C0
:104F4000F0002091EE0027FDE5CF80E008958091EC
:104F50009A0287FF13C08091E80082FF06C080910B
:104F6000E8008B778093E80004C08091990281115A
:104F7000F2CF0895809199028823D9F38091E800B7
:104F800080FFF8CF8091E8008E77ECCF2091E4008D
:104F90003091E50095E6A9012091EC00822F817007
:104FA00020FF06C08091E80080FF06C080E00895E1
:104FB0002091E80022FD1AC080919902882389F08F
:104FC000853089F08091EB0085FD0FC02091E400D1
:104FD0003091E50042175307F9F29150E1F684E071
:104FE000089582E0089583E0089581E008950E9485
:104FF00066280E946E28E0EEF0E080818160808368
:10500000E8EDF0E080818F77808319BCA7EDB0E0F8
:105010008C918E7F8C9380818F7E808310929802FA
:1050200008950F931F93CF93DF930E9466280E94E9
:105030006E28C8EDD0E088818F778883888180686A
:10504000888388818F7D888319BC10929902109281
:105050009502109297021092960200EE10E0F8016D
:1050600080818B7F808388818160888342E060E0DB
:1050700080E00E947327E1EEF0E080818E7F8083E4
:10508000E2EEF0E0808181608083808188608083AF
:10509000F80180818E7F8083888180618883DF91A1
:1050A000CF911F910F910895E8EDF0E080818F7E00
:1050B0008083E7EDF0E080818160808384E082BFBF
:1050C00081E0809398020E9411280895E8EDF0E0B5
:1050D00080818E7F80831092E20008951092DA0022
:1050E0001092E10008951F920F920FB60F921124B3
:1050F0002F933F934F935F936F937F938F939F93E0
:10510000AF93BF93EF93FF938091E10082FF0BC0B9
:105110008091E20082FF07C08091E1008B7F809345
:10512000E1000E94D22A8091DA0080FF19C08091AC
:10513000D80080FF15C08091DA008E7F8093DA005E
:105140008091D90080FF96C080E189BD82E189BD50
:1051500009B400FEFDCF81E0809399020E943024C3
:105160008091E10080FF19C08091E20080FF15C0AE
:105170008091E2008E7F8093E2008091E200806166
:105180008093E2008091D80080628093D80019BC9F
:1051900085E0809399020E9444248091E10084FF7D
:1051A0002BC08091E20084FF27C080E189BD82E1AD
:1051B00089BD89B5982F917080FFFBCF8091D80071
:1051C0008F7D8093D8008091E1008F7E8093E100F5
:1051D0008091E2008F7E8093E2008091E200816006
:1051E0008093E20080919502882309F449C084E00D
:1051F000809399020E944D248091E10083FF29C091
:105200008091E20083FF25C08091E100877F809339
:10521000E10082E080939902109295028091E10072
:105220008E7F8093E1008091E2008E7F8093E20088
:105230008091E20080618093E20042E060E080E0E3
:105240000E9473278091F00088608093F0000E9494
:105250004124FF91EF91BF91AF919F918F917F91E9
:105260006F915F914F913F912F910F900FBE0F90D3
:105270001F90189519BC109299020E943E2470CF7D
:105280008091E30087FD93E090939902B3CF1F9242
:105290000F920FB60F9211242F933F934F935F936A
:1052A0006F937F938F939F93AF93BF93CF93DF932E
:1052B000EF93FF93D091E900DF708091EC00C82F4D
:1052C000C17080FDC0E81092E9008091F000877FF6
:1052D0008093F00078940E948B291092E9008091CD
:1052E000F00088608093F000CD2BCF70C093E90070
:1052F000FF91EF91DF91CF91BF91AF919F918F91EE
:105300007F916F915F914F913F912F910F900FBEC1
:105310000F901F901895AAE2B0E0E1E9F9E20C9431
:10532000912B8AE992E02091F100FC012193CF01B9
:10533000F2E0823A9F07B9F70E9477248091E80053
:1053400083FF1EC180919A0290919B029A3008F0CF
:1053500017C1E92FF0E0E054F34D0C94442B803852
:1053600099F0823809F00CC180919E028F708730CD
:1053700008F006C18093E9008091EB0085FB882747
:1053800080F91092E90006C08091960290919702F0
:10539000911182609091E800977F9093E80080934C
:1053A000F1001092F1008091E8008E77E5C088232B
:1053B00009F4D3C0823009F0E3C080919C028111CE
:1053C000D6C080919E028F702FEF280F263008F0F4
:1053D000D7C08093E9002091EB0020FFC8C0933034
:1053E00031F48091EB0080628093EB00C0C090911B
:1053F000EB0090619093EB0021E030E001C0220FC0
:105400008A95EAF72093EA001092EA008091EB0077
:105410008860EACF8111B4C010919C021F778091FF
:10542000E3008078812B8093E3008091E800877F00
:105430008093E8000E94A7278091E80080FFFCCFBE
:105440008091E30080688093E30082E0111183E0A3
:105450008093990295C08058823008F091C0809165
:105460009C0290919D028C3D23E09207A1F583E080
:105470008A838AE289834FB7F894DE01139620E08D
:105480003EE051E2E32FF0E050935700E49120FF1B
:1054900003C0E295EF703F5FEF708E2F90E0EA302F
:1054A000C0F0C7968D939D932F5F243159F74FBF5E
:1054B0008091E800877F8093E8006AE270E0CE0187
:1054C00001960E94B6268091E8008B778093E800D1
:1054D00057C0C096E7CF60919E0270919F02AE01C7
:1054E0004F5F5F4F0E94A825BC01892B09F448C07B
:1054F0009091E800977F9093E80089819A810E94BB
:105500001427E1CF8038E1F58091E800877F809310
:10551000E800809195028093F10045CF811130C061
:1055200090919C02923060F58091E800877F809393
:10553000E800909395020E94A72780919502882306
:1055400011F084E005C08091E30087FDFACF81E08F
:10555000809399020E94582413C080919C0281304C
:1055600079F481E0933009F080E080939702109203
:10557000E9008091E800877F8093E8000E94A727D8
:105580008091E80083FF0AC08091E800877F8093C4
:10559000E8008091EB0080628093EB00AA96E3E044
:1055A0000C94AD2B0895CF93809199028823A1F09C
:1055B000C091E900CF709091EC00892F817090FD2F
:1055C00080E8C82B1092E9008091E80083FD0E94DA
:1055D0008B29CF70C093E900CF910895991B79E092
:1055E00004C0991F961708F0961B881F7A95C9F773
:1055F00080950895AA1BBB1B51E107C0AA1FBB1FC2
:10560000A617B70710F0A61BB70B881F991F5A954E
:10561000A9F780959095BC01CD01089597FB072EC1
:1056200016F4009407D077FD09D00E94FA2A07FCEF
:1056300005D03EF4909581959F4F089570956195A2
:105640007F4F0895A1E21A2EAA1BBB1BFD010DC0BE
:10565000AA1FBB1FEE1FFF1FA217B307E407F50722
:1056600020F0A21BB30BE40BF50B661F771F881FFE
:10567000991F1A9469F760957095809590959B0194
:10568000AC01BD01CF010895EE0FFF1F0590F4910D
:10569000E02D099469279627692778278727782797
:1056A00008950E94592B332312F48A1B9B0B0C94F0
:1056B0006A2BA29FB001B39FC001A39F700D811DF3
:1056C0001124911DB29F700D811D1124911D08950B
:1056D0000E94592BB7FF0895821B930B08950E94D7
:1056E000592BA59F900DB49F900DA49F800D911DE7
:1056F00011240895B7FF0C946F2B0E946F2B821B0F
:10570000930B08952F923F924F925F926F927F92E8
:105710008F929F92AF92BF92CF92DF92EF92FF92C1
:105720000F931F93CF93DF93CDB7DEB7CA1BDB0B6D
:105730000FB6F894DEBF0FBECDBF09942A88398812
:1057400048885F846E847D848C849B84AA84B98419
:10575000C884DF80EE80FD800C811B81AA81B98125
:10576000CE0FD11D0FB6F894DEBF0FBECDBFED0139
:1057700008958F929F92AF92BF92CF92DF92EF9255
:10578000FF92CF93DF93EC01688179818A819B81BD
:10579000611571058105910521F464E279ED8BE5D0
:1057A00097E02DE133EF41E050E00E94802C490169
:1057B0005A019B01AC01A7EAB1E40E946F2B6B0177
:1057C0007C01ACEEB4EFA50194010E947D2BDC01BD
:1057D000CB018C0D9D1DAE1DBF1DB7FF03C00197F2
:1057E000A109B04888839983AA83BB839F77DF91FF
:1057F000CF91FF90EF90DF90CF90BF90AF909F90B0
:105800008F9008950E94B92B089580E091E00E9446
:10581000B92B0895B0E0A0E08093000190930101BE
:10582000A0930201B09303010895FC014150504040
:1058300030F001900616D1F73197CF0108958827EF
:1058400099270895FB01DC0104C08D910190801916
:1058500021F441505040C8F7881B990B0895FB0173
:10586000DC0102C001900D9241505040D8F70895DC
:10587000F999FECF92BD81BDF89A992780B5089518
:10588000A6E1B0E044E050E00C94722CA8E1B0E056
:1058900042E050E00C94722C262FF999FECF92BD75
:1058A00081BDF89A019700B4021639F01FBA20BDE5
:1058B0000FB6F894FA9AF99A0FBE08950396272F17
:1058C0000E944D2C0E944C2C252F0E944D2C242FE1
:1058D0000C944D2C0196272F0E944D2C0C944C2C8F
:1058E000DC01CB01FC01F999FECF06C0F2BDE1BDA0
:1058F000F89A319600B40D9241505040B8F708958F
:10590000052E97FB1EF400940E94972C57FD07D09C
:105910000E94222B07FC03D04EF40C94972C509538
:105920004095309521953F4F4F4F5F4F089590958B
:105930008095709561957F4F8F4F9F4F0895F89494
:10594000FFCFFA04FA042B052B05BF05DB055A052A
:105950005A05E6054D065C065C06901C941CB71CB7
:10596000C31CCE1CD91CDC1CDF1CE21C2B1D2B1DF8
:10597000E51CE91CF11CFE1C0B1D0E1D111D1E1D3E
:10598000AF29D729C02AD729C02A0A2A2B2AC02AF8
:04599000822A8E2AAF
:10599400010000001D02280850011E0A1401010123
:1059A40002000400040401191A1B1C1D1E1F2021DF
:1059B400228023A52384230124FC23832301E200E2
:1059C400E900EA00B500B600B700CD008301CC00C1
:1059D4008A01920194012102230224022502260253
:1059E40027022A02B300B4006F007000818283E2B0
:1059F40000E900EA00B500B600B700CD008301CC91
:105A0400008A019201940121022302240225022624
:105A14000227022A02B300B4006F0070008182835F
:105A240035F4F536000102020202060606090909E8
:105A34000909090F0F0F0F0F0F151515181919194B
:105A4400191919191919192324252525252525403E
:0E5A5400227BC40427044904CC03E5030504A7
:00000001FF
